:020000040800F2
:10000000F80B0020450100080D31000829270008E1
:1000100009310008B50800083D3F00080000000055
:10002000000000000000000000000000E13D0008AA
:10003000D108000800000000DD3D0008E53D000893
:100040005F0100085F0100085F0100085F01000810
:100050005F0100085F010008D50800085F01000883
:100060005F0100085F0100085F0100085F010008F0
:100070005F0100085F0100085F0100085F010008E0
:10008000B9080008C50800085F0100085F01000802
:100090005F0100085F0100085F0100085F010008C0
:1000A0005F0100085F0100085F0100085F010008B0
:1000B0005F0100085F0100085F01000839270008A0
:1000C0002D2700085F0100085F0100085F0100089C
:1000D0005F0100085F0100085F0100085F01000880
:1000E000DD0800085F0100085F0100085F010008EB
:1000F0005F0100085F0100085F0100085F01000860
:100100005F0100085F0100085F0100085F0100084F
:100110005F0100085F0100085F0100085F0100083F
:100120005F0100085F0100085F0100085F0100082F
:10013000DFF80CD000F080FB00480047613F00086A
:10014000F80B00200648804706480047FEE7FEE718
:10015000FEE7FEE7FEE7FEE7FEE7FEE7FEE7FEE777
:10016000E93D00083101000840EA01039B0703D084
:1001700009E008C9121F08C0042AFAD203E011F8E6
:10018000013B00F8013B521EF9D27047D2B201E0A8
:1001900000F8012B491EFBD270470022F6E710B58C
:1001A00013460A4604461946FFF7F0FF204610BDE5
:1001B000F0B480EA0102D40F4200B2EB410F02D248
:1001C0000246084611464A0042D0C30DDDB2C1F3D3
:1001D000C752AD1A202D35DAC1F3160141F40002E1
:1001E00004B15242C5F1200602FA06F12A41104438
:1001F000B3EBD05F23D0C4B1012DA0EBC35009DC19
:10020000F0BC4FF0004202EAC352DBB200F500003E
:1002100000F086BA400000F1807000EBC350A0F1FE
:10022000807040EAD170490009E0490841EAC07194
:10023000A0EBC35000F50000400800EBC350F0BC39
:1002400000F065BA6142012202EB4101001BF6E7B2
:10025000F0BC704781F00041AAE780F00040A7E7BA
:1002600080EA010210B502F00043400022D04A00AB
:100270001FD0010E01EB1261C0F35600C2F356020B
:1002800040F4000042F40002A0FB022000047F3989
:10029000140400D0401C50EA124001D44000491E12
:1002A000C2B20C0604EBD010401C4008802A02D0D9
:1002B00003E0002010BD20F00100002900DA00203A
:1002C000184310BD30B480EA010202F0004530F05E
:1002D000004221F0004013D090B1C30DD40DC2F301
:1002E0001601C0F31600E41A41F4000140F40002C4
:1002F0007D34914201D3641C00E04900002C02DAF5
:1003000030BC002070474FF400000023914201D31D
:10031000891A034340084FEA4101F7D151B1914294
:1003200002D14FF0004105E002D24FF0010101E09F
:100330006FF0010103EBC450284430BC00F0E7B972
:100340002DE9FE4F804681EA0300C00F0C46009065
:1003500021F0004123F00045B8EB0200A94105D28D
:100360004046214690461C460B46024623F000407C
:10037000104347D0270DC7F30A00C3F30A51029078
:10038000401A019040286BDAC3F3130040F4801B3D
:100390000098924620B10023D2EB030A63EB0B0BCB
:1003A00001985946C0F14002504600F07FF90646D8
:1003B0000D4650465946019A00F097F910EB080097
:1003C0006141002487EA115284EAE7731A4340D05E
:1003D000009A62B3019A012A4FEA075215DC001B0A
:1003E00061EB02014FF0004202EA0752CDE9004200
:1003F000001C41F5801132462B4600F0CEF903B0C7
:10040000BDE8F08F40462146F9E7001B61EB020191
:10041000001C41F5801300185B412018A2F500175D
:1004200047EB030140EAD570B6196D4111E06D0844
:100430004FEA360645EAC0754FEA0752001B61EBEA
:100440000201001C41F5801149084FEA30000019F3
:10045000514132462B4603B0BDE8F04F00F08EB953
:100460000098012240000023D0EB020263EBE0730E
:10047000009821464FEAE074B8EB000061EB0401FC
:10048000E9E783F000435BE781F0004158E72DE99D
:10049000FE4F81EA030404F0004421F0004100947F
:1004A0004FF0000B23F0004350EA01045ED052EA03
:1004B00003045BD0C3F30A54C1F30A552C44A4F2DD
:1004C000F3340194A0FB0254C1F3130141F48011F1
:1004D000C3F3130343F4801301FB024400FB034EF8
:1004E000840A970A44EA815447EA8357A4FB0768C1
:1004F00002958D0A05FB07854FEA932C04FB0C54EB
:100500002705029D4FEA065847EA1637B5EB08055E
:100510006EEB070C870E920E47EA811742EA8312B0
:10052000A7FB0201B6EB0B0164EB00042B0D43EAC1
:100530000C335E1844EB1C50DA465146E7FB0201CF
:10054000C5F313044FEA0B3343EA14534FEA043262
:10055000019C43EA0603A4F10C040294009CCDE93B
:1005600000B400F01AF903B0BDE8F08F0020014696
:10057000F9E7002801DBC0F10040002901DBC1F1EF
:100580000041814201D801207047002070470028B7
:1005900001DBC0F10040002901DBC1F100418142D3
:1005A00001D20120704700207047002801DBC0F114
:1005B0000040002901DBC1F10041814201D9012045
:1005C000704700207047002801DBC0F1004000297F
:1005D00001DBC1F10041814201D1012070470020BF
:1005E0007047C10F80EAE0700844CA0796230021D3
:1005F00000F096B80EB5C10F80EAE0700844CA0753
:10060000002140F233438DE80E000A460B4600F00D
:10061000C4F803B000BD00F0004220F00040C10D5E
:10062000C0F3160040F400007F2901DA0020704773
:10063000962903DCC1F19601C84001E09639884053
:10064000002AF4D04042704770B5C1F30A5201F05D
:1006500000450024C1F3130140F2FF3341F480113F
:100660009A4201DA002070BD40F233439A42A2F26E
:10067000334203DC524200F028F800E090402C4363
:10068000F1D0404270BD00F0004230F000400AD08E
:10069000C10D01F56071C0F3160042EA0151C208B4
:1006A000400711437047002001467047202A04DBB1
:1006B000203A00FA02F1002070479140C2F1200375
:1006C00020FA03F3194390407047202A04DB203AB4
:1006D00021FA02F00021704721FA02F3D040C2F162
:1006E00020029140084319467047202A06DBCB17A9
:1006F000203A41FA02F043EAE07306E041FA02F3DD
:10070000D040C2F1200291400843194670470029A9
:10071000A8BF7047401C490008BF20F00100704787
:1007200010B4B0FA80FC00FA0CF050EA010404BFE7
:1007300010BC704749B1CCF1200421FA04F411FA3D
:100740000CF118BF012121430843A3EB0C01CB1D81
:100750004FEA00614FEA102042BF002010BC7047F2
:1007600000EBC35010440029A4BF10BC7047401CCC
:10077000490008BF20F0010010BC704710B5141EDE
:1007800073F1000408DA401C41F1000192185B414A
:100790001A4301D120F0010010BD2DE9F04D924621
:1007A0009B4611B1B1FA81F202E0B0FA80F2203238
:1007B0009046FFF77BFF04460F4640EA0A0041EAF5
:1007C0000B0153465A46084313D0114653EA010021
:1007D00019D0C8F140025046FFF777FF05460E4694
:1007E000504659464246FFF761FF084305D00120B5
:1007F00004E020463946BDE8F08D0020054346EA76
:10080000E0762C4337430A986305E40AA0EB08001E
:100810000022FD0A44EA47540A3002D5002001466E
:10082000E9E7010510196941DDE908450019694149
:10083000BDE8F04DA2E70000064C074D06E0E06879
:1008400040F0010394E8070098471034AC42F6D317
:10085000FFF772FCD0480008F048000870B58C180B
:1008600010F8015B15F0070301D110F8013B2A11C4
:1008700006D110F8012B03E010F8016B01F8016BB1
:100880005B1EF9D12B0705D40023521E0DD401F8AD
:10089000013BFAE710F8013BCB1A921C03E013F876
:1008A000015B01F8015B521EF9D5A142D8D30020AB
:1008B00070BD0000FEE7000040F21470C2F20000BC
:1008C00000F0B2B840F2D060C2F2000000F0ACB864
:1008D00070470000012000F007BB00004FF40050FB
:1008E00000F002BBEFF3108072B600BFFEE700001D
:1008F00080B590F82110022928D1026840F2040C3A
:100900001368C4F2020C23F00E03136013680CF199
:100910007C018A4223F0010111601BD940F2084199
:10092000C4F202018A4249D040F21C41C4F20201E1
:100930008A4247D040F23041C4F202018A4245D196
:100940004FF48073CCF800345DE000BF0421816374
:10095000012080BD4321C4F202018A420EDD6B21D9
:10096000C4F202018A421BDC4421C4F202018A4221
:100970003CD05821C4F202018A4233E00821C4F27B
:1009800002018A4236D01C21C4F202018A4237D0C9
:100990003021C4F202018A4224D14FF4807230E047
:1009A0006C21C4F202018A4226D08021C4F20201E5
:1009B0008A4217D14FF0807223E000BF0123CCF8A8
:1009C000003420E01023CCF800341CE00CF58861E2
:1009D0004FF480338A4208BF4FF48053CCF8003480
:1009E00011E000BF4FF480320BE000BF4FF48052A3
:1009F00007E000BF012204E04FF4801201E000BFD5
:100A00001022CCF80020012180F82110426B002137
:100A100080F820100AB190470021084680BD0000F0
:100A200090F821007047000010B5D0E90FE3D0F82E
:100A300000C0DEF80020DCF80010DA4054072DD5A5
:100A400011F004042AD0DCF80010890605D4DCF883
:100A5000001021F00401CCF800100422C4F20202BC
:100A600002F17C018C454DD940F20841C4F20201EB
:100A70008C4500F0B18040F21C41C4F202018C456B
:100A800000F0AE8040F23041C4F202018C4540F0EB
:100A9000AB804FF48061C2F80014F9E0940747D5A9
:100AA00011F0020444D0DCF80010890608D4DCF808
:100AB000001021F00A01CCF80010012180F821106B
:100AC0000422C4F2020202F17C018C454ED940F2AC
:100AD0000841C4F202018C4500F0B68040F21C418E
:100AE000C4F202018C4500F0B38040F23041C4F200
:100AF00002018C4540F0B0804FF40071C2F8001440
:100B0000D8E000BF4321C4F202018C4544DD6B21D3
:100B1000C4F202018C4551DC4421C4F202018C452F
:100B200000F0A6805821C4F202018C4568E000BFA5
:100B3000120740F1C58011F0080108BF10BDDCF8B4
:100B4000001021F00E01CCF80010012101FA03F28F
:100B5000CEF80420816380F82110016B0022002967
:100B600080F8202040F09680AAE000BF4321C4F224
:100B700002018C4548DD6B21C4F202018C4555DC35
:100B80004421C4F202018C4500F088805821C4F24F
:100B900002018C4576E000BF0821C4F202018C45B9
:100BA0006AD01C21C4F202018C456FD03021C4F2FE
:100BB00002018C4524D14FF4806168E06C21C4F2BD
:100BC00002018C455AD08021C4F202018C4517D114
:100BD0004FF080615BE000BF0421C2F8001457E0D1
:100BE0004021C2F8001453E002F588634FF48021DD
:100BF0009C4508BF4FF48041C2F8001448E000BF94
:100C00004FF4802143E000BF0821C4F202018C456B
:100C100048D01C21C4F202018C4549D03021C4F2D5
:100C200002018C452ED14FF4007142E06C21C4F2D8
:100C300002018C4538D08021C4F202018C4521D1BB
:100C40004FF0007135E000BF0221C2F8001431E01E
:100C50002021C2F800142DE002F588634FF4003122
:100C60009C4508BF4FF40051C2F8001422E000BFB9
:100C70004FF480410BE000BF042108E04FF48001F5
:100C800005E000BF4FF4003113E000BF40211160C8
:100C9000C16AA9B1BDE81040084700BF4FF4005138
:100CA00007E000BF022104E04FF4001101E000BFA3
:100CB00020211160816A0022002980F82020E9D1DA
:100CC00010BD0000014600284FF0010008BF70472A
:100CD0002DE9F04740F2000CC4F2020C0A684FF60E
:100CE000F8330CF5816ECBF6FD73724538BF03F512
:100CF000806303EB020E4CF6CD43CCF6CC43AEFB47
:100D0000033E6FF003060CF5806506EA9E06D1E906
:100D100001A9D1F80C803CBF0025C4F20205C1E94D
:100D20000F56022681F82160166843F6F075AE432F
:100D300046EA0A06D1E9045746EA090646EA0806E1
:100D4000D1E906432E43374327433B431360002238
:100D50008A6381F8210081F820200020BDE8F04757
:100D600070470000F0B590F820C0BCF1010F32D000
:100D70004FF0010E80F820E090F821C0BCF1010F87
:100D800026D14FF0020C80F821C04FF0000CC0F8C3
:100D900038C0D0E900C4C56AC66BDCF80070102CFE
:100DA00027F00107CCF80070006C0EFA00F07060BC
:100DB0000846CCF8043004BF10460A46CCF80800B8
:100DC000CCF80C20DCF8000045B140F00E000DE03E
:100DD000002180F820100220F0BD00BF20F00400A8
:100DE000CCF80000DCF8000040F00A00CCF800006D
:100DF000DCF8000040F00100CCF800000020F0BD5D
:100E0000B0B5044600F086F9054640F20C00C2F287
:100E100000000078611C18BF044400BF00F07AF99C
:100E2000401BA042FAD3B0BDB0B5054600F072F940
:100E3000012D04461AD0B5F5005F18BFB0BD40F6CD
:100E40000000C4F2010000F500604FF4005100F012
:100E50005BF901281ED140F20020C2F200000121FE
:100E600080F82C1044630170B0BD00BF40F6000054
:100E7000C4F201000121012500F046F901281FD12B
:100E800040F20020C2F20000022180F83C5044648D
:100E90000170B0BD40F20020C2F20000002180F8D5
:100EA0002C10416B0222611AC9084A294FF0010136
:100EB000846388BF012280F8302080F82E10B0BDF6
:100EC00040F20020C2F20000002180F83C10416C8A
:100ED0000222611AC90884644A2988BF012280F865
:100EE000402080F83E50B0BD40F21441C4F20101F0
:100EF0000A68024214BF08607047FFF795BF000000
:100F00002DE9F04F82B041F60043C4F201030E68B0
:100F10000622984208BF0522002E009200F0F080C1
:100F2000A0F18043A3F5843340F200484FF6FF75EB
:100F30004FEAB327C4F20108009A4FF0000E0123D4
:100F4000C1F210054FF00F0C4FF0000A4FF0000BEC
:100F5000052F38BF3A46009209E000BF0E680AF13B
:100F6000010A36FA0AF20EF1040E00F0C98003FA03
:100F70000AF916EA090FF1D04E68AE4212DC122EC1
:100F800056D8DFE806F0350B4549555555555555AA
:100F9000555555555555554D510000BFD1F80CB01C
:100FA00046E000BF4FF6FF72C1F2210296420FDC0D
:100FB0000022C1F2110296421AD00022C1F212029E
:100FC000964215D00022C1F22102964210D02FE0A5
:100FD0000022C1F2220296420AD00022C1F231025E
:100FE000964205D00022C1F23202964220D100BFC3
:100FF0008E684EB1012E14BFC0F81490C0F8109046
:101000004FF0080B14E000BF4FF0040B10E000BFDE
:10101000CF6807F1080B0BE04FF0000B08E000BFB2
:10102000CF6807F1040B03E0CF6807F10C0B00BF9A
:1010300074460746BAF1080F24BF203C04373E68C7
:101040000CFA04F226EA02020BFA04F632433A6082
:10105000CA79D2067FF582AF41F21807C4F20207BF
:101060003A684FF6084342F001023A603A68CFF618
:10107000FF7302F001020192019A2AF00302424436
:10108000D7580EF00C060CFA06F4A743009C04FA9D
:1010900006F63743D750D1F804C040F20C445FEA5B
:1010A000CC22D8F8082054BF22EA090642EA0906F1
:1010B000C4F201045FEA8C22C8F80860226854BFB9
:1010C00022EA090642EA09065FEA8C322660D8F86D
:1010D000042054BF22EA090642EA09065FEACC323C
:1010E000C8F804604FF00F0C4FF00103D8F800204F
:1010F00054BF22EA090642EA0906C8F800602DE753
:1011000002B0BDE8F08F00008068084018BF0120E1
:101110007047000040F2F470C2F2000000687047AF
:101120007047000070470000F0B581B004460068C9
:1011300000254769426894F83E1002F48076FA056B
:1011400008D53EB16FF4807242610268012542F415
:1011500000420260BA0505D5002E1EBF02356FF4AD
:10116000007242617A0516D5AEB1628D94F83D30B9
:10117000D4F830C0202908BF002A23D06FF4806241
:10118000402905F10405426101D0102903D101680D
:1011900041F400710160380506D52EB1206808358C
:1011A0006FF40061416100E055B1206C40EA050137
:1011B0002046216401B0BDE8F04001F00BBC00BF47
:1011C00001B0F0BD03F0F701212909D0282B08BF99
:1011D000BCF1210F04D06FF4806141610435DAE77E
:1011E00094F83D10E26AB2F1080318BF0123203AD7
:1011F00018BF0122134208BF282921D0212939D143
:101200000021CFF6FF71E16221212163202184F8C2
:101210003D10002184F83E10426822F4E0624260F2
:101220006FF480624261026822F480620260426967
:10123000120648BF0161204600F066FDABE700BF23
:101240000021CFF6FF71E162416821F4E061416065
:101250006FF480614161016821F4806101600020C8
:101260002021206384F83D1084F83E00204600F0E1
:10127000F3FB90E76FF4806141618CE7F0B581B0DA
:10128000076804467868E26A94F83E3094F83DE0D6
:10129000402B01D0102B27D1BE697D69E90751D1C0
:1012A000B2F12A4F00F0C082B2F52A0F00F0BC82E2
:1012B00000F400724FF0010C29078CEA522C45D53E
:1012C000002A43D0606B616CC9B2396118B1806A81
:1012D000002840F02281A06B002800F0A582806ADF
:1012E000002840F01A819FE2216C00F4007300296D
:1012F0000CBFBE6900267D69A90753D5002B51D0CC
:10130000206C002818BFBE6994F83D0000F028004A
:10131000282840F093807868002320F4806078606B
:10132000012020EA960130064FF0180058BF0C202B
:10133000225A204684F83C3001B0BDE8F040FFF767
:10134000F1BE00BF810557D44FF0010CA90759D554
:10135000BCF1000F56D194F83E30E06A226B94F84D
:101360003D10222940F0E080216D002908BF402B6C
:1013700000F0DA80216D002940F034812169B1F557
:10138000404F40F02F810020009078690090B869AC
:1013900000900098386840F480703860206D01300B
:1013A00095E200BFE90655D5002B53D094F83D5087
:1013B000786820F4E0607860002000907869009000
:1013C000386840F0010038600098386820F4806088
:1013D00038607868000540F1428105F0F700264644
:1013E000222840F01B8156F8380F0168496826F81A
:1013F0000E1C36F80E1C19E1E06AB0F52A0F5DD11B
:10140000012060E07968720701F4006100F19680C4
:10141000002940F00982690605F0040140F1B0811D
:1014200010F4806000F0AC81002940F0A9812046D2
:1014300001B0BDE8F04001F00FBC00BF00200090FB
:1014400079690091B9690091009984F83C0001B074
:10145000F0BD00BF0EF0F701212940F0858029067C
:1014600005F0040240F14C8110F4806000F04881E6
:10147000002A40F0458194F83D00618D002900F07C
:10148000D381616A11F8012B3A616162618D013982
:101490006185618D002908BF292840F0C5817868E1
:1014A000282120F48060786021202063204684F881
:1014B0003D1001B0BDE8F04000F026BCE06AB0F19C
:1014C0002A4F01D10820E06294F83E0040280BD159
:1014D000206D616C002801F0FE0018BF40F0010093
:1014E000386101B0F0BD00BF2069B0F5804F69D10F
:1014F00094F83D00616C212801F0FE0118BF013114
:101500003961606B08B1806A38B9A06B002800F0BF
:101510008B81806A002800F08781786840F4006041
:10152000786001B0F0BD00BF0020009078690090A5
:10153000B8690090009801B0F0BD00BF002940F0EC
:101540007381290605F0040140F1268110F48060C2
:1015500000F02281002940F01F81204601B0BDE843
:10156000F04001F065BC00BF690605F0040240F1DF
:10157000DB8010F4806000F0D780002A40F0D48037
:1015800094F83D00618D002900F04E813969626A4E
:101590001170616A01316162618D01396185618D0E
:1015A000002908BF2A2840F03F812068416821F4C3
:1015B00080614160222028212063204684F83D106C
:1015C000D9E000BF206D002800F0C080206D012808
:1015D00040F02A81606C062101EAD010F1303861B8
:1015E00001B0F0BD618D61B1618D012940F0E480F1
:1015F000202818BF082840F01981386820F480603E
:1016000038600020009078690090B86900900098D8
:10161000386840F40070386058E100BF56F8340F65
:101620000168496826F80A1C36F80A1C19B1216CB1
:1016300041F004012164796821F400617960FFF7C9
:10164000EFF901280BD0306842F24571C0F6000175
:101650004163FFF74DF910B13068416B8847608DE9
:1016600060B120684169490730D4416949063AD4DC
:10167000608D18B1206C40F004002064206C28B10B
:10168000204601B0BDE8F04001F0A4B92A2D07D1F1
:1016900000202063282084F83D00204600F032FB23
:1016A00094F83D00282859D10020CFF6FF70E06261
:1016B00000212020216384F83D00204684F83E105C
:1016C00001B0BDE8F04000F0C7B900BF0069616A31
:1016D0000870616A206801316162618D013961853C
:1016E00041694906C4D50069616A0870606A0130C1
:1016F0006062608D01386085608D0028BAD1BDE7D9
:10170000002A18BF002B00F08F80608D002800F0A9
:101710008B80606A10F8011B39616062608D01384E
:10172000608501B0F0BD00BF002A18BF002B00F09B
:101730007B80608D002877D03869616A0870606AA4
:1017400001306062608D013860856DE0606C06215B
:1017500001EAD010F030386101B0F0BD206B2228D2
:1017600018BF222D60D100212020216384F83D0084
:10177000204684F83E1001B0BDE8F04000F0C2BA47
:10178000B1FA81F0400950EA0C004DD1204601B079
:10179000BDE8F04001F0E4B9B1FA81F0400950EA47
:1017A0000C0041D1BEF1210F36D1204601B0BDE879
:1017B000F04001F0FBBA00BF618D022914D110285E
:1017C00058D8012114228140C0F20102114251D0A7
:1017D000396841F480613960002100917969009194
:1017E000B9690091009954E0396841F48061396029
:1017F0007968090563D5421E1F2A5DD801219140F1
:1018000048F28102C8F20002114255D0786840F4D3
:101810008050786053E000BF402B05D1204601B0D6
:10182000BDE8F04001F05EBB01B0F0BD10F5803FB7
:101830000CD1386820F480603860786800057FF546
:10184000E0AE386820F48060386038E0122A02D1B7
:1018500001287FF4D2AE1028F3D8012101FA00F05C
:101860001421C0F201010842EBD0386840F48060D6
:10187000386024E0396841F400613960002100914A
:1018800079690091B96900910099396821F4806102
:1018900039607968090519D5421E1F2A1AD8012115
:1018A000914048F28102C8F20002114212D07868D9
:1018B00040F48050786009E010F5803FA6D0002009
:1018C000009078690090B869009000980020206529
:1018D00001B0F0BD10F5803FE9D0F7E77047000098
:1018E00070B5B8B3044690F83D0028B9002084F8DC
:1018F0003C00204600F08EF9242084F83D0020684A
:10190000016821F001010160016841F400410160BA
:10191000016821F40041016000F08CFB48F2804135
:10192000C0F21E0140F60013D4F804E088424FF0E4
:101930000001C0F23D0348F2A16C4FF0000238BF35
:1019400001219842C0F2010C38BF0122E64538BFA0
:101950000A460AB1012070BD4DF68361C4F21B3105
:10196000A0FB01122168950C4B684FF4967623F08A
:101970003F0343EA9243754344F6D3564B60C1F2AA
:1019800062060B6AA5FB0656B50923F03F03E64540
:1019900038BF950C6A1C1A430A62CA6948F2A066ED
:1019A0004CF6FF73C0F20106B64522EA03020BD8DB
:1019B00001384FEA4E03B0FBF3F001306FF31F30F4
:1019C000042898BF04201EE0A368013863B11923DE
:1019D0000EFB03F3B0FBF3F001306FF31F3078B16F
:1019E00000F5804008E000BF0EEB4E03B0FBF3F0C3
:1019F00001306FF31F3028B100F5004003E000BF55
:101A0000012000E001201043C8610868D4E90723E1
:101A100020F0C000104318430860886848F2FF3285
:101A200004F10C0690434CCE18431043A56988601E
:101A3000C86820F0FF0030432843C860086840F0C1
:101A40000100086000202021206484F83D102063FC
:101A500084F83E0070BD0000704700007047000031
:101A60007047000070B582B004460020019094F8E1
:101A70003D00202837D140F21400C2F20000006877
:101A80004BF28956C008C1F2F846A0FB0606300AA0
:101A9000192670430190019801380190019838B3DC
:101AA0002568A86980071AD5019801380190019826
:101AB000F0B12568A869800711D501980138019017
:101AC0000198A8B12568A869800708D50198013850
:101AD0000190019860B12568A8698007DBD494F86B
:101AE0003C00012814D10226304602B070BD00BF70
:101AF00000202021206384F83D1084F83E00206CF3
:101B0000022640F020002064304602B070BD00BFC5
:101B1000012084F83C002868C00703D1286840F001
:101B2000010028602868002620F400602860212039
:101B300084F83D00102084F83E00266462626385CC
:101B4000638D0020CFF6FF702385E06261642BB3C4
:101B5000606BA8B342F6A50142F6690CC0F600011D
:101B6000C0F6000C00F1280E00268EE8421005F1A8
:101B7000100C114662464663FFF7F4F880B320204C
:101B800084F83D0084F83E60206C40F01000206432
:101B900084F83C600126304602B070BD286840F4ED
:101BA00080602860286840F48070286084F83C6079
:101BB000686840F4E0606860304602B070BD00BF05
:101BC000202084F83D00002084F83E00216C01268E
:101BD00041F08001216484F83C00304602B070BDC1
:101BE000206884F83C60416841F44071416041687C
:101BF00041F400614160016841F480610160016865
:101C000041F480710160304602B070BD7047000041
:101C1000704700002DE9F04186B0044645F20040CF
:101C20002168C4F2000000278142049702D006B068
:101C3000BDE8F08141F21805C4F20205296840F2BE
:101C40006C0841F008012960296800F5384001F06E
:101C5000080101910199C0210291122103910321F0
:101C6000059102A9C4F20208FFF74AF968688026C4
:101C700040F400106860686840F2D06500F400101D
:101C80000190019808F11400C2F20005C5E90007AF
:101C90002846C5E90276C5E90477C5E90677FFF766
:101CA00011F8002818BFFEF71DFEA5636C6240F214
:101CB0001475C2F2000510200021C5E900802846F5
:101CC000C5E90216C5E90411C5E90611FEF7FAFFD8
:101CD000002818BFFEF706FE1F20002100226563C2
:101CE0006C6200F08BF81F2000F078F820200021B3
:101CF000002200F083F8202000F070F806B0BDE864
:101D0000F0810000704700007047000040F20C00B6
:101D100040F2F471C2F20000C2F2000100780A68D9
:101D2000104408607047000080B542F20000C4F221
:101D30000200016841F010010160032000F08AF800
:101D40000F2000F005F800F027F8002080BD00000B
:101D500070B540F20C06C2F2000640F2140132786F
:101D6000C2F200014FF47A730968B3FBF2F2044641
:101D7000B1FBF2F1084600F05FFB0F2C4FF00105BC
:101D800008D838B94FF0FF3021460022002500F076
:101D900035F87460284670BD82B041F21800C4F274
:101DA00002000168022241F001010160016801F0B6
:101DB000010101910199416841F080514160406801
:101DC00000F08050009000980420C4F201000168E7
:101DD00062F31A61016002B070470000002848BF3A
:101DE000704700F01F01012202FA01F14EF20012C9
:101DF0004009CEF2000242F82010704710B54EF6AE
:101E00000C5CCEF2000CDCF80030C3F3022E8EF036
:101E10000704042C28BF0424BEF103034FF0FF3E47
:101E20000EFA04F438BF0023A14399400EFA03F3DD
:101E30009A43114300F00F02043A624409010C3244
:101E400000F16043B0F1FF3FC8BF03F56442117079
:101E500010BD00004EF60C51CEF200010A684FF69C
:101E6000FF031A4060F30A2242F0806040F0FD70E8
:101E7000086070472DE9F04381B0002800F08580AC
:101E800042F20008C4F202080446D8F800000D46E9
:101E900000F0070088420CD2D8F8000020F00700BC
:101EA0002843C8F80000D8F8000000F00700A84256
:101EB0006BD1206841F204098107C4F2020917D5E9
:101EC000410705D5D9F8001041F4E061C9F80010C8
:101ED000010705D5D9F8001041F46051C9F8001088
:101EE000D9F80010A26821F0F0011143C9F80010E0
:101EF000C00741D1D8F8000000F00700A8420CD973
:101F0000D8F8000020F007002843C8F80000D8F8EF
:101F1000000000F00700A84237D12068410707D52C
:101F2000D9F80010E26821F4E0611143C9F800100B
:101F3000000708D5D9F80000216920F4605040EA74
:101F4000C100C9F80000D9F8002002F00C000828F0
:101F500041F20020C0F27A0050D144F65403C2F39B
:101F60008341C0F60003595CD2033BD440F6001015
:101F7000C0F23D00484341E0606802280AD00128D1
:101F80002AD159F8041C890308D4012001B0BDE806
:101F9000F08300BF59F8041C8901F6D5D9F8001068
:101FA00021F003010843C9F80000FFF7B3F8064623
:101FB00041F28837D9F80000616800F00C00B0EBFE
:101FC000810F97D0FFF7A6F8801BB842F2D9032003
:101FD00001B0BDE8F08300BF59F8041C8907D4D5CF
:101FE000DCE700BFD9F8002044F22063C2F340428E
:101FF000C0F600039A5C4843B0FBF2F0D9F8001039
:1020000044F20862C1F30311C0F60002515C40F2D1
:10201000140220FA01F140F21000C2F20000006840
:10202000C2F200021160FFF793FE002001B0BDE88C
:10203000F083000040F2140041F20401C2F20000FB
:10204000C4F202010068096844F21862C1F3022177
:10205000C0F60002515CC8407047000040F2140016
:1020600041F20401C2F20000C4F2020100680968F2
:1020700044F21862C1F3C221C0F60002515CC840AC
:10208000704700002DE9F04182B0002868D0044676
:10209000007841F20006C007C4F2020625D070683D
:1020A00000F00C0004281BD0706800F00C00082819
:1020B00002D17068C00313D46068002800F0688102
:1020C000B0F5A02F00F07C81B0F5803F00F07C815E
:1020D000306820F480303060306820F4802076E171
:1020E0003068800301D56068D0B32078800718D5A8
:1020F000706810F00C0F07D0706800F00C00082812
:102100006ED17068C0036BD43068800702D5206937
:10211000012825D13068616920F0F80040EAC1004B
:102120003060207800071FD42078400732D4E5695A
:1021300095B1706800F00C00082840F08F80012DE8
:102140000ED07068216A00F480328A4208D1616A38
:1021500000F47010884203D1002002B0BDE8F08185
:10216000012002B0BDE8F081A069002862D0002003
:10217000C4F242200121C0F88014FEF7CBFF0546CF
:10218000706A800700F18C80FEF7C4FF401B0228B4
:10219000F6D92AE1F06910F0805808D1F06940F0D2
:1021A0008050F061F06900F080500090009847F294
:1021B0000007C4F200073868C00529D4386840F425
:1021C00080703860FEF7A6FF054600BF3868C0057E
:1021D0001ED4FEF79FFF401B6428F7D905E100BF1E
:1021E0002069002840F20000C4F2422000F0828002
:1021F00001210160FEF78EFF054600BF30688007B1
:102200003FF588AFFEF786FF401B0228F6D9ECE0C9
:10221000E068002800F08080052800F09780012801
:1022200000F09880306A20F001003062306A20F0BF
:10223000040092E00020C4F242200021C0F8801483
:10224000FEF768FF054600BF706A80077FF56CAF38
:10225000FEF760FF401B0228F6D9C6E00027C4F253
:10226000422700203866FEF755FF022D05460BD1A8
:102270003068800140F1BE80FEF74CFF401B022811
:102280004FF00300F4D968E7306880017FF564AF50
:10229000FEF740FF401B02284FF00300F4D95CE733
:1022A00040F21400C2F20000006844F6D351C1F2BB
:1022B0006201A0FB0101480A019000BF00BF019824
:1022C000411E002801913FF42FAF00BF0198411E2D
:1022D000002801913FF428AF00BF0198411E00285B
:1022E00001913FF421AF00BF0198411E00280191E8
:1022F000E4D119E700210160FEF70CFF054600BF9D
:10230000306880077FF50DAFFEF704FF401B022801
:102310004FF00300F4D920E7306A20F0010030626A
:10232000306A20F004003062FEF7F4FE054641F208
:10233000883700BF306A800720D5FEF7EBFE401BD0
:10234000B8424FF00300F5D907E700BF306A40F00C
:1023500004003062306A40F001003062FEF7DAFEBD
:10236000054641F2883700BF306A800706D4FEF781
:10237000D1FE401BB842F7D937E000BFB8F1000FDB
:102380007FF4D5AEF06920F08050F061CFE600BF59
:10239000306820F480303060306820F48020306075
:1023A000FEF7B8FE054600BF306880037FF59DAE9E
:1023B000FEF7B0FE401B64284FF00300F4D9CCE6D2
:1023C000306840F480203060306840F48030306005
:1023D000FEF7A0FE054600BF306880033FF585AEDE
:1023E000FEF798FE401B6428F6D9032002B0BDE832
:1023F000F08100BF206AB0F5803F05D17168A26806
:1024000021F40031114371607168626A21F4741122
:1024100010430843706001203866FEF77BFE0446D7
:10242000306880013FF598AEFEF774FE001B02286D
:102430004FF00300F4D990E6411E0020B0EB116F7D
:102440001CBF012070474EF21002CEF20002516014
:102450004EF62351CEF20001F0230B70072190605D
:1024600011607047002804BF0120704710B5044672
:1024700090F8410028B9002084F84000204600F080
:1024800061F8242084F841002068D4E90212C3686E
:1024900023F40053C360036923F440531A430261D9
:1024A000D4E904231143C268194341F20C639A43EF
:1024B0001143C1604169A26921F44071114343F69F
:1024C0000002C4F201029042416103D0FFF7B2FD65
:1024D00002E000BFFFF7C2FD626819214843910086
:1024E000B0FBF1F048F21F51C5F2EB11A0FB012344
:1024F0005A096FF0630302FB0300322303EB001061
:10250000A0FB0101F02303EA5113206803EB021240
:10251000C1F3431111448160016921F490410161CB
:10252000416921F02A014161C16841F40051C16053
:1025300000202021606484F8411084F84210606318
:1025400010BD000070B586B040F60004C4F201046E
:10255000006804F5405100268842049602D006B077
:1025600070BD00BF41F21800C4F20200016802AD64
:1025700041F480410160016801F4804101910199B9
:10258000016841F0040101600068294600F0040080
:10259000019001984FF400700290022003900320F4
:1025A00005902046FEF7ACFC4FF48060CDE90206B2
:1025B000204629460496FEF7A3FC06B070BD000035
:1025C0002DE9F041044690F8410020281CBF02206C
:1025D000BDE8F0810F4600294FF0010000F0828035
:1025E0001646002A08BFBDE8F0814FF00008212000
:1025F0001D46C4F8448084F84100FEF78BFDA68494
:10260000E684A1680646B1F5805F05D120690028FF
:1026100014BF3846B8460746E08CC8B1681C19D0CC
:10262000002D61D1216807E017F8010B4860E08CAC
:102630000138E084E08C68B3086800064CD5002FB0
:10264000F2D138F8020B00276FF35F20EEE700BFEE
:1026500021681FE0216802E00868000609D40868C4
:10266000000606D4086800065CBF08685FEA0060E0
:10267000F2D51FB117F8010B05E000BF38F8020BC7
:1026800000276FF35F204860E08C0138E084E08C25
:102690000028E4D1086840061CD4EDB1681C0FD1B5
:1026A0000868400616D40868400613D40868400637
:1026B00010D4086840064FF00000F1D50FE000BFCD
:1026C000FEF728FD801BA84208D82068C168006872
:1026D0004006F5D5002002E0FEF71CFD0320202176
:1026E00084F84110BDE8F081216800BF0868000649
:1026F00008D4FEF70FFD801BA842EFD82168C868F8
:10270000F4E700BF17B117F8010B04E038F8020B2B
:1027100000276FF35F204860E08C0138E084E08C94
:102720000028E3D1B6E70000FEE7000040F2587051
:10273000C2F20000FEF7F8BC40F25870C2F200008E
:10274000FEF79CBD10B581B000210091406A40F2B7
:102750001401C2F2000190F83DC009684BF28952A1
:10276000C908C1F2F842A1FB0212110A2322514307
:102770000091009911B3009901390091016809682D
:1027800089051FD50099C9B10099013900910168E7
:102790000968890516D5009981B100990139009120
:1027A0000168096889050DD5009939B10099013989
:1027B0000091016809688905DBD403E0016C41F0F0
:1027C00020010164446B4FF0000E002C1CBF00215F
:1027D000A162816B00291CBF00228A620268002C62
:1027E000136823F480631360A0F82AE018BFC4F8CC
:1027F00034E000291CBF00234B63116821F0010164
:10280000116090F83D1060290CD1202180F83D1016
:10281000002180F83E10016401B0BDE81040FEF7D1
:102820007FBC00BF0CF02801282911D1116841F0AC
:1028300001011160116841F48061116000210163A0
:10284000282180F83D1001B0BDE81040FFF746B8E0
:10285000202180F83D10002180F83E1001B0BDE835
:102860001040FFF73BB80000406A416B00291CBFD5
:1028700000228A62816B00291CBF00228A620168E3
:102880000A6822F480620A6000212022418580F8D3
:102890003D2080F83E10016C41F010010164FFF70B
:1028A0001DB8000010B5446A94F83D2094F83EE04D
:1028B000D4F82CC02168606B4B68002823F4407367
:1028C0004B601CBF00238362A06B00281CBF002349
:1028D000836202F02100212820D002F02200222869
:1028E00008BFBEF1200F19D094F83E00002808BFA1
:1028F00010BD608D012803D1086820F48060086055
:102900004868BCF1070F20F44070486028DCBCF137
:102910002A4F2BD01CF5803F28D02BE048682A2A6C
:1029200020F4006048604FF0000060850AD0292A3A
:1029300010D121202063282084F83D002046FFF795
:10294000E3F907E022202063282084F83D00204698
:10295000FFF7D8F92068416841F44071416010BD2B
:10296000BCF1200F02D0BCF1080F03D1086840F47D
:1029700000700860486820F480504860486820F47F
:102980000060486000216185206C28B12046BDE8C8
:102990001040FEF7A3BF00BF202084F83D0094F84C
:1029A0003E0084F83E10402806D1002120462163D5
:1029B000BDE81040FFF72AB9BCF1080018BF12208B
:1029C000BCF1200118BF014620462163BDE810403C
:1029D000FFF744B810B5044690F83D1090F83E005B
:1029E000B0F1100218BF0122403818BF0120024286
:1029F00008BF222934D001F0280028283AD100202D
:102A00002063282084F83D0020684168090542D5EC
:102A1000416821F400614160606B90F82110012948
:102A200058D1A06B42F24571C0F600014163FDF739
:102A30005FFF002861D020684169490606D500691A
:102A4000616A0870616A206801316162016821F081
:102A500001010160202084F83D00A06B4BE000BF25
:102A60002068026822F4006202604268120505D5FF
:102A70000CE000BF20684268120507D4602905D029
:102A8000202184F83D10002184F83E1000212163AC
:102A900041680905BCD494F83D10602950D120212B
:102AA00084F83D10002121644169490606D500697A
:102AB000616A0870616A206801316162016821F011
:102AC000010101602046FEF72BFB206C000717D1A7
:102AD0001BE000BF42F24571C0F600014163FDF703
:102AE00007FF50B12168606B0A6822F001020A609A
:102AF000202184F83D10416B8847206C000704D0EA
:102B00002068416821F4E061416094F83D00216C47
:102B1000490758BF10BD282810D10020CFF6FF70FC
:102B2000E06200212020216384F83D00204684F8E3
:102B30003E10BDE81040FEF78FBF00BF10BD00BFC4
:102B40004169490605D50069616A0870606A01300B
:102B500060622046FEF7C2FE206C0007D0D1D4E7A9
:102B6000C16A428D042A07D10168426A4B6823F486
:102B700080634B60096911E0428D032A16D1026817
:102B80000229536823F48063536005D0042903D0DD
:102B9000116821F4806111601169426A1170416A03
:102BA00001314162418D013941857047428D022AD0
:102BB00012D14A1E0F2A19D8DFE802F008121812A3
:102BC0001818181818181818181818080268136810
:102BD00023F480630EE000BF0168426ACAE700BFC9
:102BE0000268136843F4806304E000BF026813685E
:102BF00043F4007313601269436A1A70426AD0F892
:102C000000C0531C4362438D013B4385DCF8103008
:102C10005370426A036801324262428D013A428532
:102C20005A6822F440725A60202280F83D2090F8C1
:102C30003E300022402B80F83E2003D10263FEF795
:102C4000E5BF00BFB1F1080218BF1222203918BF3A
:102C500011460163FEF702BF81B090F83D102229B2
:102C600079D1C16A428D042A14D30168426A096984
:102C70001170416A01314162418D01394185418DB7
:102C8000032968D10068416821F48061416001B086
:102C9000704700BFC36A022B58D0012A56D80022C1
:102CA000009240F21402C2F2000212684BF2895301
:102CB000D208C1F2F843A2FB03231A0A02EB8202F4
:102CC0000092009A013A0092009A002A46D00268C7
:102CD00013689B051AD5009A013A0092009AEAB34C
:102CE000026813689B0511D5009A013A0092009A78
:102CF000A2B3026813689B0508D5009A013A0092B6
:102D0000009A5AB3026813689B05DAD4136823F457
:102D100080631360536823F4E06353601269436A6D
:102D20001A70426A01324262428D013A4285202283
:102D300080F83D2090F83E300022402B80F83E2065
:102D400028D1026301B0FEF761BF00BF006841688F
:102D500021F48061416001B0704700BF016C41F017
:102D6000200101640168426A4B6823F4E0634B6010
:102D700009691170416A01314162418D0139418512
:102D8000202180F83D10002180F83E1001B0FEF7B0
:102D9000A5BD00BFB1F1080218BF1222203918BF2B
:102DA0001146016301B0FEF759BE0000C16A90F8F8
:102DB0003D20212A18BF7047428D4AB1416A0268FE
:102DC00011F8013B13614162418D01394185704722
:102DD00011F5803F18BF082918D101684A6822F40C
:102DE000E0624A600A6842F400720A600021202210
:102DF000016380F83D2090F83E2080F83E10402A84
:102E000008BFFEF705BFFEF72BBE00BF2029E4D0A8
:102E100001684A6822F4E0624A60112101630021DE
:102E200080F83E10202180F83D10FEF719BE00000A
:102E300090F83D1090F83EC0C26A038D002B08BF89
:102E4000212919D0212905D0BCF1400F08BF222922
:102E500000D07047418D69B390F83E10402908BFFB
:102E600000F040B8416A026811F8013B1361416209
:102E7000418D01394185704712F5803F18BF082AFE
:102E80001ED101684A6822F4E0624A600A6842F48E
:102E900000720A6000212022016380F83D2090F832
:102EA0003E2080F83E10402A08BFFEF7B1BEFEF774
:102EB000D7BD00BF0068416821F480614160704760
:102EC000202ADED001684A6822F4E0624A601121BB
:102ED0000163002180F83E10202180F83D10FEF7AC
:102EE000BFBD000090F83D10026D5AB1026D012A7D
:102EF00014D10168826CD2B20A61016D01310165A1
:102F0000704700BFC26C816C012A15D10268C9B23A
:102F10001161016D02310165704700BF026D022A27
:102F200012D1222918D101680A6842F480720A601D
:102F3000016D0131016570470268C1F3072111611C
:102F4000016D01310165704700684169090644BFA0
:102F500000210161704700BF428D5AB1212909D17A
:102F6000416A026811F8013B13614162418D0139E8
:102F700041857047428D002A08BF2129EAD10168A6
:102F80004A6822F4E0624A600A6842F400720A6009
:102F900000212022016380F83D2080F83E10FEF7DA
:102FA00037BE000080B582B041F21400C4F20200C6
:102FB0000168002241F0010101600068002100F079
:102FC0000100019001981020FEF718FF1020FEF775
:102FD00005FF112000210022FEF710FF112002B092
:102FE000BDE88040FEF7FABEF0B585B00020049041
:102FF00041F21800C4F20200016840F6000441F0FA
:10300000100101600168002601F010010091009993
:103010000168C4F2010441F004010160016801ADDE
:1030200001F00401009100990168C1F2310641F0FC
:10303000080101600068022700F008000090009875
:103040004FF40050019004F5006029460296039762
:10305000FDF756FF012001A9C1C120462946FDF711
:103060004FFF062000210022FEF7C8FE0620FEF7D3
:10307000B5FE282000210022FEF7C0FE2820FEF722
:10308000ADFE05B0F0BD000080B540F2587045F2CD
:103090000041C2F20000C4F2000141F68022002388
:1030A0004FF4804CC0F2060280E80E00C0E9033CF9
:1030B000C0E90533C0E90733FEF712FC002808BF5A
:1030C00080BDBDE88040FDF70DBC000080B540F23A
:1030D000AC7043F60001C2F20000C4F2010100230B
:1030E0004FF00C0C4FF4E13280E80E00C0E90333DE
:1030F000C0E905C3C361FFF7B5F9002808BF80BD6B
:10310000BDE88040FDF7EEBBFEE70000FEE70000F3
:103110002DE9F04381B0A3B10646DDF820801044CC
:103120001C468946002507B2E8B2484401B2304641
:103130003A460B46CDF8008000F058F80135A5421C
:10314000F2D301B0BDE8F0832DE9F04F83B005461E
:1031500056190C460230B11EDDF830A00FFA81F886
:103160000FFA80F91F464846214642462346CDF8CD
:1031700000A000F03BF8601C01B2484642460B46F6
:10318000CDF800A000F032F8052FA7F10200029060
:1031900011D34FF0040B36B20BEB0400023801B22E
:1031A000284632460B46CDF800A000F01FF80BF180
:1031B000010B5F45F0D10298C5B2BD4213D2281968
:1031C00001B2484642460B46CDF800A000F00EF88A
:1031D000681CC0B2204401B2484642460B46CDF8B6
:1031E00000A000F003F803B0BDE8F08F2DE9F04F28
:1031F00081B082421AD18B421F46BCBF0F4619468E
:103200007F2A33D938B200BF4A1C12B2824229DC6D
:103210008A1C12B2824225DCCA1C12B2824221DC14
:10322000043109B28142EFDD1CE000BF8B4243D183
:1032300082421746BCBF074610463F2B40F29A8099
:1032400039B200BF421C12B28A420BDC821C12B29D
:103250008A4207DCC21C12B28A4203DC043000B28C
:103260008842EFDD01B0BDE8F08F00BF40F24C2C8A
:1032700090B23AB24FF6F87E4FF00108C2F2000C5D
:1032800004E000BF013109B29142EBDC8DB23F2D69
:10329000F8D801EA0E050CEB051501F007042B5CCC
:1032A00008FA04F40A9E83EA0407002E08BF43EAE2
:1032B00004072F54E6E700BFA2EB00080FFA88F6D8
:1032C000A3EB01090FFA89F508EBE637012E4FF061
:1032D000010E87EAE63609EBE537B8BF4FF0FF3E4F
:1032E000012D87EAE5354FF0010B0FFA85FA0FFA49
:1032F00086FCB8BF4FF0FF3BD4455DDD0023009254
:103300000FE000BF1BB253441C041DB27044BCEB61
:10331000E43FDCBF5944A5EB0C0384B295B2AC4248
:10332000A0D087B27F2FEDD88CB23F2CEAD84FF6D1
:10333000F87440F24C260C40C2F200066246D446B5
:10334000DA46F34606EB041E01F007081EF8079064
:10335000012404FA08F50A9C89EA0506002C08BF36
:1033600049EA05060EF80760DE46D346E246944673
:10337000009AC7E79AB203F00701012303FA01F1AB
:10338000D3083AB240F24C27C2F2000707EBC3134E
:1033900005E000BF013000B290423FF763AF87B253
:1033A0007F2FF7D8DE5D0A9C86EA0105002C08BF56
:1033B00046EA0105DD55EDE700220FE012B2624456
:1033C000140415B25944BAEBE43FDCBF7044A5EBDA
:1033D0000A028CB29DB2AC423FF444AF87B27F2F59
:1033E000ECD88CB23F2CE9D84FF6F87440F24C255B
:1033F0000C40C2F2000505EB041401F00708E65D7D
:10340000012505FA08F5DDF8289086EA0508B9F1E6
:10341000000F08BF46EA050804F80780CEE7000061
:103420002DE9F04182B006461044DDF8208005B257
:103430001F4630462A460B460C46CDF80080FFF763
:10344000D5FE381907B2304639462A463B46CDF8F4
:103450000080FFF7CBFE3046214632463B46CDF892
:103460000080FFF7C3FE284621462A463B46CDF89A
:103470000080FFF7BBFE02B0BDE8F081B0B540F2BE
:103480004C6440F25875C2F20004AE20C2F200054E
:10349000607000BF2846782122460223FEF7E2FA38
:1034A0000028F7D140F258752020C2F20005607064
:1034B0002846782122460223FEF7D4FA0028F7D1C5
:1034C00040F258751020C2F200056070284678213D
:1034D00022460223FEF7C6FA0028F7D140F25875BB
:1034E000B020C2F2000560702846782122460223EF
:1034F000FEF7B8FA0028F7D140F25875C820C2F29A
:10350000000560702846782122460223FEF7AAFAB9
:103510000028F7D140F258750020C2F20005607013
:103520002846782122460223FEF79CFA0028F7D18C
:1035300040F258751020C2F20005607028467821CC
:1035400022460223FEF78EFA0028F7D140F2587582
:103550004020C2F2000560702846782122460223EE
:10356000FEF780FA0028F7D140F258758120C2F2A8
:10357000000560702846782122460223FEF772FA81
:103580000028F7D140F25875DF20C2F200056070C4
:103590002846782122460223FEF764FA0028F7D154
:1035A00040F25875A120C2F20005607028467821CB
:1035B00022460223FEF756FA0028F7D140F258754A
:1035C000A620C2F200056070284678212246022318
:1035D000FEF748FA0028F7D140F25875A820C2F249
:1035E000000560702846782122460223FEF73AFA49
:1035F0000028F7D140F258753F20C2F200056070F4
:103600002846782122460223FEF72CFA0028F7D11B
:1036100040F25875A420C2F2000560702846782157
:1036200022460223FEF71EFA0028F7D140F2587511
:10363000D320C2F20005607028467821224602237A
:10364000FEF710FA0028F7D140F258750020C2F2B8
:10365000000560702846782122460223FEF702FA10
:103660000028F7D140F25875D520C2F200056070ED
:103670002846782122460223FEF7F4F90028F7D1E4
:1036800040F25875F020C2F200056070284678219B
:1036900022460223FEF7E6F90028F7D140F25875DA
:1036A000D920C2F200056070284678212246022304
:1036B000FEF7D8F90028F7D140F258752220C2F25F
:1036C000000560702846782122460223FEF7CAF9D9
:1036D0000028F7D140F25875DA20C2F20005607078
:1036E0002846782122460223FEF7BCF90028F7D1AC
:1036F00040F258751220C2F2000560702846782109
:1037000022460223FEF7AEF90028F7D140F25875A1
:10371000DB20C2F200056070284678212246022391
:10372000FEF7A0F90028F7D140F258752020C2F228
:10373000000560702846782122460223FEF792F9A0
:103740000028F7D140F258758D20C2F20005607054
:103750002846782122460223FEF784F90028F7D173
:1037600040F258751420C2F2000560702846782196
:1037700022460223FEF776F90028F7D140F24C20CA
:10378000C2F200004FF48061FCF707FD00F0D6FAAA
:1037900040F25875AF20C2F20005607028467821CB
:1037A00022460223FEF75EF90028F7D1B0BD0000E3
:1037B00080B540F24C20C2F200004FF48061FCF76B
:1037C000ECFC80BD2DE9F04782B09A4613781BB31C
:1037D0000646DDF828809AF801008946571E00BF8A
:1037E0009AF80050A3F12002EB1DDAF80410DC086F
:1037F000C3B202FB03F000FB041270B2494600950D
:10380000CDF8048000F0A0F89AF80100BB780644D7
:10381000002B07F10107E3D102B0BDE8F0870000FB
:103820002DE9F047C1F302340D196CB24FEAE40EF2
:1038300005F0F8040C1B11F1080F84BF4FF0000EC7
:1038400001F10804E1B2DDF820C00B44092B4DD38F
:10385000002824D45FFA8EF4072C20D8C1F1080781
:10386000FF2626FA07F940F24C26C2F2000602FAB9
:1038700001F55FFA80F806EBC414BCF1000F18BF25
:10388000ED4314F808A045EA09060AEA06096FF0B4
:10389000FF063E41354045EA090504F80850002876
:1038A0004FD40EF101075FFA87FEBEF1070F48D82B
:1038B000F733C1F1080122FA01F1DAB24FF4FF73D4
:1038C00003FA02F240F24C23C2F20003C0B203EB4F
:1038D000CE13BCF1000F18BFC9431F5C41EA0206BA
:1038E0003740914339431954BDE8F087002828D464
:1038F0005FFA8EFEBEF1070F88BFBDE8F087013B7F
:10390000DBB24FF4FF7740F24C268A4007FA03F30C
:10391000C1F10801FF27C2F20006C0B2CF4006EB9A
:10392000CE16BCF1000F18BFD2431F43355C1743BE
:103930002F406FF0FF0545FA01F1994311403943DB
:103940003154BDE8F08700002DE9F04F8FB0DDF86D
:1039500064800D46B8F1000F4146069218BF4FF043
:10396000FF31002B0E911946079300F0E4810446C5
:103970001898C308082800F0070A05D2BAF1000F0A
:1039800040F0BE81D7E100BF1846CDF80CA0012B56
:10399000029398BF012000F0010100F01E000B907F
:1039A0000798049141004FF0000C0A910D90089582
:1039B000059428E0C1F1080122FA01F1C2B20E9883
:1039C000731E4140D8B24FF4FF7303FA00F040F287
:1039D0004C23C2F2000303EBC21202EB0A0712F8F7
:1039E0000A2041EA00031A4021EA0000104338701F
:1039F00007980CF1010C84450D98059C00F101001D
:103A00000D9000F073810CEB04004FFA80F95FFA1F
:103A100080FA18984FF0000E102840F24C20C2F2A5
:103A2000000050440990CDF830C021D204980028FD
:103A3000DED00798069A0EFB00C005EBCE01CBB294
:103A4000125CF82B40F21481B9F1000FD0D4C81DDC
:103A50000831C9B2C1F1080122FA01F10E9A099F99
:103A60005140C0B24FF4FF7202FA00F03A78B8E762
:103A7000069A25E0CBF10801C7B20E98731E24FA0E
:103A800001F14140D8B24FF4FF7303FA00F040F265
:103A90004C23C2F2000303EBC71303EB0A0613F82F
:103AA0000A3041EA000703EA070421EA0000204344
:103AB00030700B980EF1020E70450A980244B5D092
:103AC00005EBCE085FFA88F012F80C40F82815D9FB
:103AD000B9F1000F6DD408F10801C9B2C1F10801B4
:103AE0000E9B08F1070024FA01F1099E5940C0B26B
:103AF0004FF4FF7303FA00F0337852E04FFA88F086
:103B0000C0F30230404441B220F00700A8EB000CA3
:103B1000C910B9F1000F5FFA8CF621D407291FD81C
:103B20000E9D04FA06F0C6F10807FF23684023FA49
:103B300007F540F24C235FFA81FBC2F2000303EB6E
:103B4000CB1313F80AB005430BEA050B6FF0FF0522
:103B500045FA07F73840089D40EA0B0003F80A00D1
:103B60005FEA0C6025D0B9F1000F22D4481C072869
:103B70001FD8C6F10801C7B20E98ACF1010324FAB0
:103B800001F14140D8B24FF4FF7303FA00F040F264
:103B90004C23C2F2000303EBC71303EB0A0613F82E
:103BA0000A3041EA000703EA070421EA0000204343
:103BB00030700D9B08F10801C8B2D45CF82817D901
:103BC000DDF830C0B9F1000F3FF573AFC81D083103
:103BD000C9B2C1F108010E9B24FA01F1099E5940B6
:103BE000C0B24FF4FF7303FA00F0337859E700BF17
:103BF00048B2C0F302300B1858B223F00703CE1AB4
:103C0000C010B9F1000F5FFA86FB22D4072820D834
:103C10000E9904FA0BF34B40CBF10805FF2121FA72
:103C200005F840F24C215FFA80FCC2F2000101EB82
:103C3000CC1717F80AC043EA08010CEA010C6FF030
:103C4000FF0141FA05F52B40089D4CEA030107F8F6
:103C50000A10DDF830C031063FF42BAFB9F1000F88
:103C60003FF527AF013007287FF604AF21E700BFFB
:103C700048B2C0F302300B1858B223F00703CE1A33
:103C8000C010B9F1000FF1B223D4072821D80E9D3E
:103C900002FA01F36B40C1F10805FF2424FA05FC88
:103CA00040F24C24C7B2C2F2000404EBC71717F865
:103CB0000AE043EA0C040EEA040E6FF0FF0444FA33
:103CC00005F5DDF830C02B40089D43EA0E0307F8E8
:103CD0000A3033063FF48CAEB9F1000F3FF588AEE1
:103CE000013007287FF666AE82E600BFDDF80CA043
:103CF000DDF86480029BBAF1000F1CD00798D0B1A8
:103D0000189800F0F8004119DDE906204EB203FBD7
:103D1000002945424FF0FF30471C4844427838198B
:103D200040B231465346CDF80080FFF779FDE819DF
:103D300001303846F0D10FB0BDE8F08F2DE9F04FDB
:103D400081B040F24E64C2F2000440F24C6540F291
:103D5000587640F24C2A40204FF00008C2F200058D
:103D6000C2F200064FF01009C2F2000A04F1010B82
:103D700000272070A7F15000687000BF30467821FE
:103D80002A460223FDF76EFE0028F7D185F8018050
:103D9000304678212A460223FDF764FE0028F7D139
:103DA00085F80190304678212A460223FDF75AFE15
:103DB0000028F7D10AEBC71158468022FCF7D4F946
:103DC0003046782122468123FDF74CFE0028F7D1AA
:103DD0000137082FCED101B0BDE8F08F7047000049
:103DE00070470000FDF792BF70470000F0B581B04A
:103DF000FFF7DEFC40F20407C2F2000740F20025A4
:103E00003968C2F2000595F8200095F8222049682B
:103E1000B7F90430101A01EB031144F2246451F88D
:103E2000102C0C38C0F60004002641B202202346B4
:103E30000096FFF7C7FC95F8200095F82210B7F917
:103E40000420081A39681201496804308A5841B2BE
:103E5000022023460096FFF7B5FC396895F820004C
:103E600095F822204968B7F90430101A01EB0311C4
:103E70000A69143041B2022023460096FFF7A2FCE3
:103E8000396895F8200095F822204968B7F9043080
:103E9000101A01EB03110A6A243041B202202346B2
:103EA0000096FFF78FFC396895F8200095F82220DE
:103EB0004968B7F90430101A01EB03110A6B34306A
:103EC00041B2022023460096FFF77CFC396895F842
:103ED000200095F822204968B7F90430101A01EB48
:103EE00003110A6C443041B2022023460096FFF7CA
:103EF00069FC688BB9882A7DA0EB01100130012490
:103F000001B200200E230094FFF71EF97920002152
:103F100006223F230096FFF783FA386880228089C3
:103F2000B5F92610B2FBF0F37B2002220096FFF7D2
:103F3000EFF801B0BDE8F040FFF700BFFEE700007A
:103F400080B582B0019040F2AC70C2F2000001A9CD
:103F500001224FF6FF73FEF733FB019802B080BDDC
:103F600090B0FDF7E1FE00240120CDE90B44CDE93E
:103F7000094406900A904FF4E0104FF48031022576
:103F80000F9006A8CDE90714CDE90D51FEF77AF898
:103F900020B1EFF3108072B6FEE700BF0F20CDE92D
:103FA00001054FF48060CDE9040401A802210394C7
:103FB000FDF760FF20B1EFF3108072B6FEE700BF9F
:103FC000FFF712F8FEF7EEFFFFF75EF8FFF77EF857
:103FD000FFF754FA40F20029C2F200090020C9E9B3
:103FE0000B00C9E90D00C9E90F00C9E9110014204F
:103FF000FCF706FF0FF2C45000F0F4FA40F20400A0
:10400000C2F200000068016940680A01A9F81C209A
:1040100000EB01100079042100EB400001EB4000AF
:10402000A9F81600A9F814000220A9F828005FE0FA
:10403000CBF8106030464FF07C51FCF7A8FA0746E9
:1040400030463146FCF7B4F8044630462146FCF7CA
:1040500007F905464FF081402146FCF7FBF8314651
:10406000FCF7FEF80021CBF68071FCF7A1F80446BE
:10407000002F18BF2C462046FCF705FB0B460021FD
:1040800002460020C3F6F071FCF7FBF98146BBF94C
:104090002A00BBF928808A46FCF7ACFA83464046E2
:1040A0000F46FCF79EFA01462046FCF7D9F8FCF7CC
:1040B000EAFA04460D46484651465A4640F200295F
:1040C0003B46C2F20009FCF7E2F922462B46FCF718
:1040D00037F9FCF7B9FA044630464FF07E51FCF749
:1040E00072FA002818BF4446A9F82640FFF77EFE62
:1040F00099F80000411E09EB0112114611F82E3FFC
:10410000002B00F0938092F83020022A40F08E803D
:1041100001284FF000030B700AD0022816D140F29C
:104120000400C2F2000001680869451E07E000BFF4
:1041300040F20400C2F2000001680869451C0D61EC
:10414000888985420BD100250CE000BF40F20400B5
:10415000C2F2000001680D6988898542F3D06A1CAB
:1041600001D1451E0D61B9F81C20C9F80430A9F829
:104170001E20B9F81620C9F80830A9F818202A011D
:10418000A9F81C20496840F2040701EB0511C2F2AE
:104190000007B7F906200979954201EB41014FF07C
:1041A000040202EB4101A9F8161005DDE91EC9F869
:1041B0000C30FD80B9800CE0B7F904108D4207DAAD
:1041C000E91CF9802946C9F80C30BD8001E000BF28
:1041D00089B2B9F822200901A9F824208022A9F87F
:1041E0002210B9F82610441EB2FBF0F0A542C9F81F
:1041F0001030A9F82A1003D1C0F13E0014E000BF2E
:10420000C0F13C00FCF7EDF906462046FCF7E9F961
:1042100001463046FCF756F84FF07C51FBF7C8FFDB
:10422000FCF7F9F968430230A9F82800D9F80440EE
:104230004FF07E512046FCF7AAF9074600284FF0C0
:10424000004120461CBF4CF6CD41C3F6CC51FBF7D4
:10425000AFFF4FF07E510446FCF7A7F90028264631
:1042600018BF4FF07E564FB920464FF07E51FCF7F5
:1042700080F9002808BFC9F8046001E0C9F80460AB
:1042800030464FF07C51FCF782F907463046314604
:10429000FBF78EFF044630462146FBF7E1FF05465B
:1042A0004FF081402146FBF7D5FF3146FBF7D8FFA1
:1042B0000021CBF68071FBF77BFF0446002F18BF6F
:1042C0002C462046FCF7DFF90B4600210246002071
:1042D000C3F6F071FCF7D5F88246B9F91E008B469B
:1042E000FCF788F9054640F20020C2F20000B0F960
:1042F0001C7088463846FCF774F901462046FBF7E7
:10430000AFFFFCF7C0F9044689465046594640F2D3
:10431000002A2A464346C2F2000AFCF7B8F82246B1
:104320004B46FCF70DF8FCF78FF9044630464FF08A
:104330007E51FCF748F9002818BF3C46DAF80850CF
:104340004FF07E512846AAF81A40FCF720F907469C
:1043500000284FF0004128461CBF4CF6CD41C3F663
:10436000CC51FBF725FF4FF07E510446FCF71DF9B9
:104370000028264618BF4FF07E564FB920464FF012
:104380007E51FCF7F6F8002808BFCAF8086001E083
:10439000CAF8086030464FF07C51FCF7F8F8074641
:1043A00030463146FBF704FF044630462146FBF712
:1043B00057FF05464FF081402146FBF74BFF314642
:1043C000FBF74EFF0021CBF68071FBF7F1FE0446B0
:1043D000002F18BF2C462046FCF755F90B4600214C
:1043E00002460020C3F6F071FCF74BF88046BAF99C
:1043F00018008946FCF7FEF8834640F20020C2F21E
:104400000000B0F916A00F465046FCF7EAF8014646
:104410002046FBF725FFFCF736F904460D464046DB
:1044200049465A4640F200293B46C2F20009FCF7D1
:104430002EF822462B46FBF783FFFCF705F90446CE
:1044400030464FF07E51FCF7BEF8002818BF5446A6
:10445000D9F80C504FF07E512846A9F81440FCF7CB
:1044600096F8074600284FF0004128461CBF4CF63E
:10447000CD41C3F6CC51FBF79BFE4FF07E51044675
:10448000FCF793F80028264618BF4FF07E564FB928
:1044900020464FF07E51FCF76CF8002808BFC9F8A1
:1044A0000C6001E0C9F80C6030464FF07C51FCF71D
:1044B0006EF8074630463146FBF77AFE0446304632
:1044C0002146FBF7CDFE05464FF081402146FBF724
:1044D000C1FE3146FBF7C4FE0021CBF68071FBF72D
:1044E00067FE0446002F18BF2C462046FCF7CBF889
:1044F0000B46002102460020C3F6F071FBF7C1FF16
:104500008046B9F924008946FCF774F8834640F2E6
:104510000020C2F20000B0F922A00F465046FCF77E
:1045200060F801462046FBF79BFEFCF7ACF804461A
:104530000D46404649465A4640F2002B3B46C2F2E1
:10454000000BFBF7A4FF22462B46FBF7F9FEFCF716
:104550007BF8044630464FF07E51FCF734F80028D3
:1045600018BF5446DBF810504FF07E512846ABF888
:104570002040FCF70CF8074600284FF00041284681
:104580001CBF4CF6CD41C3F6CC51FBF711FE4FF0EA
:104590007E510446FCF709F80028264618BF4FF064
:1045A0007E56002F7FF444AD20464FF07E51FBF73E
:1045B000E0FF002808BFCBF810603BE5726561643E
:1045C000793A290002E008C8121F08C1002AFAD16E
:1045D00070477047002001E001C1121F002AFBD183
:1045E0007047000010B5044601E0FFF7A9FC14F87D
:1045F000010B04490028F8D1BDE810400A20FFF75C
:104600009FBC00000000002000000000000000002F
:104610000102030406070809000000000102030468
:1046200001020000080600002C46000800000000FF
:1046300000000000002F0000000007000700001429
:104640007F147F1400242A7F2A1200626408132337
:1046500000364955225000000503000000001C22CE
:104660004100000041221C000014083E081400080C
:10467000083E0808000000A06000000808080808BC
:10468000000060600000002010080402003E514954
:10469000453E0000427F40000042615149460021F2
:1046A00041454B31001814127F100027454545390C
:1046B000003C4A4949300001710905030036494967
:1046C000493600064949291E000036360000000020
:1046D000563600000008142241000014141414146B
:1046E0000000412214080002015109060032495914
:1046F000513E007C1211127C007F49494936003E30
:1047000041414122007F4141221C007F49494941EA
:10471000007F09090901003E4149497A007F0808E4
:10472000087F0000417F4100002040413F01007FA1
:1047300008142241007F40404040007F020C027F6D
:10474000007F0408107F003E4141413E007F09097F
:104750000906003E4151215E007F091929460046A5
:10476000494949310001017F0101003F4040403F7C
:10477000001F2040201F003F4038403F00631408C6
:1047800014630007087008070061514945430000A1
:104790007F41410000552A552A55000041417F00C4
:1047A00000040201020400404040404000000102B9
:1047B0000400002054545478007F484444380038A2
:1047C0004444442000384444487F0038545454182A
:1047D00000087E0901020018A4A4A47C007F08043C
:1047E00004780000447D4000004080847D00007F0C
:1047F000102844000000417F4000007C0418047829
:10480000007C0804047800384444443800FC242424
:1048100024180018242418FC007C0804040800480C
:104820005454542000043F444020003C4040207C2D
:10483000001C2040201C003C4030403C004428101C
:104840002844001CA0A0A07C004464544C441414D0
:104850001414141402030405060708090A0B0C0DAE
:104860000E0F10104C6973745F45310061310061A7
:10487000667361643100776F6465310061667361EE
:104880006466310073647331004C6973743100776E
:10489000717765717731004C6973745F4500610011
:1048A000776F6465006166736164660073647300AA
:1048B0004C697374006D61696E4D656E75006C694D
:1048C00073744D656E7500777177657177000000C0
:1048D000F048000800000020000200005C0800080A
:1048E0006049000800020020F8090000D4450008D3
:1048F00041130C01222012033201421013127A13C9
:10490000BE4823082C2A201C720E1A8914B2051ADC
:104910006C10B2031A8F10B2071A8410B204DA6452
:1049200020DA6F10DA76600912700A3902700A1DF7
:104930007C701AB5101A20F04169F49AB05422180C
:104940001B209E10B2011AC710B2061AAC10B20397
:10495000DA9720DAA510DAA0B4A97041095E7000D8
:0400000508000131BD
:00000001FF
