:020000040800F2
:10000000F80B00204501000829310008512700089D
:1000100025310008C1080008E93F00080000000081
:100020000000000000000000000000008D3E0008FD
:10003000DD08000800000000893E0008913E00082D
:100040005F0100085F0100085F0100085F01000810
:100050005F0100085F010008E10800085F01000877
:100060005F0100085F0100085F0100085F010008F0
:100070005F0100085F0100085F0100085F010008E0
:10008000C5080008D10800085F0100085F010008EA
:100090005F0100085F0100085F0100085F010008C0
:1000A0005F0100085F0100085F0100085F010008B0
:1000B0005F0100085F0100085F0100086127000878
:1000C000552700085F0100085F0100085F01000874
:1000D0005F0100085F0100085F0100085F01000880
:1000E000E90800085F0100085F0100085F010008DF
:1000F0005F0100085F0100085F0100085F01000860
:100100005F0100085F0100085F0100085F0100084F
:100110005F0100085F0100085F0100085F0100083F
:100120005F0100085F0100085F0100085F0100082F
:10013000DFF80CD000F080FB004800470D400008BD
:10014000F80B00200648804706480047FEE7FEE718
:10015000FEE7FEE7FEE7FEE7FEE7FEE7FEE7FEE777
:10016000953E00083101000840EA01039B0703D0D7
:1001700009E008C9121F08C0042AFAD203E011F8E6
:10018000013B00F8013B521EF9D27047D2B201E0A8
:1001900000F8012B491EFBD270470022F6E710B58C
:1001A00013460A4604461946FFF7F0FF204610BDE5
:1001B000F0B480EA0102D40F4200B2EB410F02D248
:1001C0000246084611464A0042D0C30DDDB2C1F3D3
:1001D000C752AD1A202D35DAC1F3160141F40002E1
:1001E00004B15242C5F1200602FA06F12A41104438
:1001F000B3EBD05F23D0C4B1012DA0EBC35009DC19
:10020000F0BC4FF0004202EAC352DBB200F500003E
:1002100000F086BA400000F1807000EBC350A0F1FE
:10022000807040EAD170490009E0490841EAC07194
:10023000A0EBC35000F50000400800EBC350F0BC39
:1002400000F065BA6142012202EB4101001BF6E7B2
:10025000F0BC704781F00041AAE780F00040A7E7BA
:1002600080EA010210B502F00043400022D04A00AB
:100270001FD0010E01EB1261C0F35600C2F356020B
:1002800040F4000042F40002A0FB022000047F3989
:10029000140400D0401C50EA124001D44000491E12
:1002A000C2B20C0604EBD010401C4008802A02D0D9
:1002B00003E0002010BD20F00100002900DA00203A
:1002C000184310BD30B480EA010202F0004530F05E
:1002D000004221F0004013D090B1C30DD40DC2F301
:1002E0001601C0F31600E41A41F4000140F40002C4
:1002F0007D34914201D3641C00E04900002C02DAF5
:1003000030BC002070474FF400000023914201D31D
:10031000891A034340084FEA4101F7D151B1914294
:1003200002D14FF0004105E002D24FF0010101E09F
:100330006FF0010103EBC450284430BC00F0E7B972
:100340002DE9FE4F804681EA0300C00F0C46009065
:1003500021F0004123F00045B8EB0200A94105D28D
:100360004046214690461C460B46024623F000407C
:10037000104347D0270DC7F30A00C3F30A51029078
:10038000401A019040286BDAC3F3130040F4801B3D
:100390000098924620B10023D2EB030A63EB0B0BCB
:1003A00001985946C0F14002504600F07FF90646D8
:1003B0000D4650465946019A00F097F910EB080097
:1003C0006141002487EA115284EAE7731A4340D05E
:1003D000009A62B3019A012A4FEA075215DC001B0A
:1003E00061EB02014FF0004202EA0752CDE9004200
:1003F000001C41F5801132462B4600F0CEF903B0C7
:10040000BDE8F08F40462146F9E7001B61EB020191
:10041000001C41F5801300185B412018A2F500175D
:1004200047EB030140EAD570B6196D4111E06D0844
:100430004FEA360645EAC0754FEA0752001B61EBEA
:100440000201001C41F5801149084FEA30000019F3
:10045000514132462B4603B0BDE8F04F00F08EB953
:100460000098012240000023D0EB020263EBE0730E
:10047000009821464FEAE074B8EB000061EB0401FC
:10048000E9E783F000435BE781F0004158E72DE99D
:10049000FE4F81EA030404F0004421F0004100947F
:1004A0004FF0000B23F0004350EA01045ED052EA03
:1004B00003045BD0C3F30A54C1F30A552C44A4F2DD
:1004C000F3340194A0FB0254C1F3130141F48011F1
:1004D000C3F3130343F4801301FB024400FB034EF8
:1004E000840A970A44EA815447EA8357A4FB0768C1
:1004F00002958D0A05FB07854FEA932C04FB0C54EB
:100500002705029D4FEA065847EA1637B5EB08055E
:100510006EEB070C870E920E47EA811742EA8312B0
:10052000A7FB0201B6EB0B0164EB00042B0D43EAC1
:100530000C335E1844EB1C50DA465146E7FB0201CF
:10054000C5F313044FEA0B3343EA14534FEA043262
:10055000019C43EA0603A4F10C040294009CCDE93B
:1005600000B400F01AF903B0BDE8F08F0020014696
:10057000F9E7002801DBC0F10040002901DBC1F1EF
:100580000041814201D801207047002070470028B7
:1005900001DBC0F10040002901DBC1F100418142D3
:1005A00001D20120704700207047002801DBC0F114
:1005B0000040002901DBC1F10041814201D9012045
:1005C000704700207047002801DBC0F1004000297F
:1005D00001DBC1F10041814201D1012070470020BF
:1005E0007047C10F80EAE0700844CA0796230021D3
:1005F00000F096B80EB5C10F80EAE0700844CA0753
:10060000002140F233438DE80E000A460B4600F00D
:10061000C4F803B000BD00F0004220F00040C10D5E
:10062000C0F3160040F400007F2901DA0020704773
:10063000962903DCC1F19601C84001E09639884053
:10064000002AF4D04042704770B5C1F30A5201F05D
:1006500000450024C1F3130140F2FF3341F480113F
:100660009A4201DA002070BD40F233439A42A2F26E
:10067000334203DC524200F028F800E090402C4363
:10068000F1D0404270BD00F0004230F000400AD08E
:10069000C10D01F56071C0F3160042EA0151C208B4
:1006A000400711437047002001467047202A04DBB1
:1006B000203A00FA02F1002070479140C2F1200375
:1006C00020FA03F3194390407047202A04DB203AB4
:1006D00021FA02F00021704721FA02F3D040C2F162
:1006E00020029140084319467047202A06DBCB17A9
:1006F000203A41FA02F043EAE07306E041FA02F3DD
:10070000D040C2F1200291400843194670470029A9
:10071000A8BF7047401C490008BF20F00100704787
:1007200010B4B0FA80FC00FA0CF050EA010404BFE7
:1007300010BC704749B1CCF1200421FA04F411FA3D
:100740000CF118BF012121430843A3EB0C01CB1D81
:100750004FEA00614FEA102042BF002010BC7047F2
:1007600000EBC35010440029A4BF10BC7047401CCC
:10077000490008BF20F0010010BC704710B5141EDE
:1007800073F1000408DA401C41F1000192185B414A
:100790001A4301D120F0010010BD2DE9F04D924621
:1007A0009B4611B1B1FA81F202E0B0FA80F2203238
:1007B0009046FFF77BFF04460F4640EA0A0041EAF5
:1007C0000B0153465A46084313D0114653EA010021
:1007D00019D0C8F140025046FFF777FF05460E4694
:1007E000504659464246FFF761FF084305D00120B5
:1007F00004E020463946BDE8F08D0020054346EA76
:10080000E0762C4337430A986305E40AA0EB08001E
:100810000022FD0A44EA47540A3002D5002001466E
:10082000E9E7010510196941DDE908450019694149
:10083000BDE8F04DA2E700001CB50948009009484A
:1008400001900546009C06E0E06840F0010394E852
:10085000070098471034AC42F6D3FFF76DFC000058
:100860007C4900089C49000870B58C1810F8015BA1
:1008700015F0070301D110F8013B2A1106D110F839
:10088000012B03E010F8016B01F8016B5B1EF9D13D
:100890002B0705D40023521E0DD401F8013BFAE7C3
:1008A00010F8013BCB1A921C03E013F8015B01F82E
:1008B000015B521EF9D5A142D8D3002070BD0000C3
:1008C000FEE7000040F21470C2F2000000F0B2B87F
:1008D00040F2D060C2F2000000F0ACB870470000F7
:1008E000012000F005BB00004FF4005000F000BBF9
:1008F000EFF3108072B600BFFEE7000090F8211001
:10090000022927D1026840F2040C1368C4F2020CD9
:1009100023F00E03136013680CF17C018A4223F06C
:10092000010111601AD940F20841C4F202018A4261
:1009300048D040F21C41C4F202018A4246D040F243
:100940003041C4F202018A4244D14FF48073CCF8A2
:1009500000345CE004218163012070474321C4F22C
:1009600002018A420EDD6B21C4F202018A421BDCC5
:100970004421C4F202018A423CD05821C4F202014F
:100980008A4233E00821C4F202018A4236D01C2197
:10099000C4F202018A4237D03021C4F202018A42F5
:1009A00024D14FF4807230E06C21C4F202018A42FB
:1009B00026D08021C4F202018A4217D14FF0807202
:1009C00023E000BF0123CCF8003420E01023CCF852
:1009D00000341CE00CF588614FF480338A4208BF74
:1009E0004FF48053CCF8003411E000BF4FF4803254
:1009F0000BE000BF4FF4805207E000BF012204E08B
:100A00004FF4801201E000BF1022CCF80020012139
:100A100080F82110426B002180F8201022B180B5AF
:100A200090470021BDE880400846704790F82100BB
:100A30007047000010B5D0E90FE3D0F800C0DEF831
:100A40000020DCF80010DA4054072DD511F0040422
:100A50002AD0DCF80010890605D4DCF8001021F05B
:100A60000401CCF800100422C4F2020202F17C015D
:100A70008C454BD940F20841C4F202018C4500F08C
:100A8000AF8040F21C41C4F202018C4500F0AC8002
:100A900040F23041C4F202018C4540F0A9804FF48D
:100AA0008061C2F80014F3E0940745D511F0020408
:100AB00042D0DCF80010890608D4DCF8001021F0E0
:100AC0000A01CCF80010012180F821100422C4F2A0
:100AD000020202F17C018C454CD940F20841C4F27B
:100AE00002018C4500F0B48040F21C41C4F20201C6
:100AF0008C4500F0AF8040F23041C4F202018C45D9
:100B000040F0AA804FF40071AEE000BF4321C4F270
:100B100002018C4544DD6B21C4F202018C4551DC9D
:100B20004421C4F202018C4500F0A2805821C4F295
:100B300002018C4568E000BF120740F1C18011F04E
:100B4000080108BF10BDDCF8001021F00E01CCF840
:100B50000010012101FA03F2CEF80420816380F82D
:100B60002110016B0022002980F8202040F09280A3
:100B7000A6E000BF4321C4F202018C4548DD6B2191
:100B8000C4F202018C4555DC4421C4F202018C45BB
:100B900000F084805821C4F202018C4572E000BF4D
:100BA0000821C4F202018C4566D01C21C4F2020166
:100BB0008C456BD03021C4F202018C4524D14FF416
:100BC000806164E06C21C4F202018C4556D0802122
:100BD000C4F202018C4517D14FF0806157E000BF8D
:100BE0000421C2F8001453E04021C2F800144FE081
:100BF00002F588634FF480219C4508BF4FF4804183
:100C0000C2F8001444E000BF4FF480213FE000BF71
:100C10000821C4F202018C4544D01C21C4F2020117
:100C20008C4545D03021C4F202018C452AD14FF4C5
:100C300000713EE06C21C4F202018C4534D0802169
:100C4000C4F202018C451DD14FF0007131E000BFAC
:100C5000022109E0202107E002F588634FF400310A
:100C60009C4508BF4FF40051C2F8001422E000BFB9
:100C70004FF480410BE000BF042108E04FF48001F5
:100C800005E000BF4FF4003113E000BF40211160C8
:100C9000C16AA9B1BDE81040084700BF4FF4005138
:100CA00007E000BF022104E04FF4001101E000BFA3
:100CB00020211160816A0022002980F82020E9D1DA
:100CC00010BD0000014600284FF0010008BF70472A
:100CD0002DE9F04740F2000CC4F2020C0A684FF60E
:100CE000F8330CF5816ECBF6FD73724538BF03F512
:100CF000806303EB020E4CF6CD43CCF6CC43AEFB47
:100D0000033E6FF003060CF5806506EA9E06D1E906
:100D100001A9D1F80C803CBF0025C4F20205C1E94D
:100D20000F56022681F82160166843F6F075AE432F
:100D300046EA0A06D1E9045746EA090646EA0806E1
:100D4000D1E906432E43374327433B431360002238
:100D50008A6381F8210081F820200020BDE8F04757
:100D60007047000090F820C0BCF1010F04BF0220C2
:100D70007047F0B54FF0010E80F820E090F821C0E8
:100D8000BCF1010F26D14FF0020C80F821C04FF0CA
:100D9000000CC0F838C0D0E900C4C56AC66BDCF8E6
:100DA0000070102C27F00107CCF80070006C0EFAD0
:100DB00000F070600846CCF8043004BF10460A46C4
:100DC000CCF80800CCF80C20DCF8000045B140F06D
:100DD0000E000DE0002180F820100220F0BD00BFC1
:100DE00020F00400CCF80000DCF8000040F00A001D
:100DF000CCF80000DCF8000040F00100CCF8000066
:100E00000020F0BDB0B5044600F07EF9054640F282
:100E10000C00C2F200000078611C18BF044400BF3F
:100E200000F072F9401BA042FAD3B0BDB0B5054640
:100E300000F06AF9012D04461AD0B5F5005F18BF1D
:100E4000B0BD40F60000C4F2010000F500604FF4B0
:100E5000005100F053F901281ED140F20020C2F2E7
:100E6000000001214463017080F82C10B0BD00BF68
:100E700040F60000C4F201000121012500F03EF916
:100E800001281FD140F20020C2F200000221446478
:100E9000017080F83C50B0BD40F20020C2F200006A
:100EA000416B0222611AC9084A294FF0000184638C
:100EB00088BF012280F82C10012180F8302080F8B2
:100EC0002E10B0BD40F20020C2F20000416C0222A0
:100ED000611AC9084A294FF00001846488BF0122C1
:100EE00080F8402080F83C1080F83E50B0BD0000F3
:100EF00040F21441C4F201010A68024214BF0860C2
:100F00007047FFF793BF00002DE9F04F82B00E68E5
:100F1000002E00F0EF80A0F18042A2F58432870518
:100F200047EA922241F6004740F2004EC4F2010720
:100F30000625C4F2010EB84208BF052500244FF073
:100F400001080F234FF0000A4FF0000B052A38BFAD
:100F50001546009509E000BF0E680AF1010A36FA4D
:100F60000AF204F1040400F0C58008FA0AFC16EA4B
:100F70000C09F1D04E684FF6FF72C1F21002964292
:100F800012DC122E56D8DFE806F0350B45495555D0
:100F900055555555555555555555554D510000BF4D
:100FA000D1F80CB046E000BF4FF6FF72C1F221024B
:100FB00096420FDC0022C1F2110296421AD00022A2
:100FC000C1F21202964215D00022C1F221029642CD
:100FD00010D02FE00022C1F2220296420AD0002255
:100FE000C1F23102964205D00022C1F2320296428D
:100FF00020D100BF8A684AB1012A14BFC0F814C0CA
:10100000C0F810C04FF0080B14E000BF4FF0040B05
:1010100010E000BFCA6802F1080B0BE04FF0000BB4
:1010200008E000BFCA6802F1040B03E0CA6802F1DD
:101030000C0B00BF22460646B9F5807F24BF203A3C
:101040000436376803FA02F5AF430BFA02F23A436B
:101050003260CA79D2067FF57FAF41F21807C4F239
:1010600002073A684FF6084342F001023A603A68D4
:10107000CFF6FF7302F001020192019A2AF00302F7
:1010800072440F25D75804F00C06B540AF43009DBD
:1010900005FA06F63743D7504E6840F20C45F20287
:1010A000DEF8082054BF22EA090242EA0902C4F22B
:1010B0000105CEF808202A68B70254BF22EA0902C7
:1010C00042EA09022A60DEF80420B70354BF22EA8C
:1010D000090242EA0902CEF804200F23DEF80020BC
:1010E000F70354BF22EA090242EA0902CEF80020BF
:1010F00032E700BF02B0BDE8F08F00008068084012
:1011000018BF01207047000040F2F470C2F20000E6
:10111000006870477047000070470000F0B581B06C
:101120000446006800254769426894F83E1002F4BE
:101130008076FA0508D53EB16FF48072426102688C
:10114000012542F400420260BA0505D5002E1EBFFB
:1011500002356FF4007242617A0516D5AEB1628D28
:1011600094F83D30D4F830C0202908BF002A23D09D
:101170006FF48062402905F10405426101D0102915
:1011800003D1016841F400710160380506D52EB124
:10119000206808356FF40061416100E055B1206CB2
:1011A00040EA05012046216401B0BDE8F04001F0AD
:1011B00025BC00BF01B0F0BD03F0F701212909D023
:1011C000282B08BFBCF1210F04D06FF4806141616E
:1011D0000435DAE794F83D10E26AB2F1080318BF6B
:1011E0000123203A18BF0122134208BF282921D029
:1011F000212939D10021CFF6FF71E162212121633C
:10120000202184F83D10002184F83E10426822F429
:10121000E06242606FF480624261026822F48062A0
:1012200002604269120648BF0161204600F04CFD91
:10123000ABE700BF0021CFF6FF71E162416821F406
:10124000E06141606FF480614161016821F4806177
:10125000016000202021206384F83D1084F83E00C6
:10126000204600F0D9FB90E76FF4806141618CE784
:10127000F0B581B0076804467868E26A94F83E30B9
:1012800094F83DE0402B01D0102B1BD1BD697E6945
:10129000F10745D1B2F12A4F00F06082B2F52A0F72
:1012A00000F05C82310700F4007240F10981002AED
:1012B00000F00681606B616C0028C9B2396140F0B2
:1012C000EE80EEE0216C00F4007300290CBFBD69D4
:1012D00000257E69B1073DD5E3B3206C002818BF17
:1012E000BD6994F83D0000F02800282874D1786882
:1012F000012120F48060786005F0040081EA90010B
:1013000028064FF0180058BF0C20225A0023204610
:1013100084F83C3001B0BDE8F040FFF7FDBE00BFEF
:10132000810541D44FF0010C79686A0742D4090560
:1013300000F1148206F04401402940F0318110F49C
:10134000806000F02D81204601B0BDE8F04001F042
:1013500097BC00BFF1064BD5002B49D094F83D5007
:10136000786820F4E0607860002000907869009050
:10137000386840F0010038600098386820F48060D8
:1013800038607868000540F1508105F0F700264686
:10139000222840F0298156F8380F0168496826F85C
:1013A0000E1C36F80E1C27E1E06AB0F52A0F51D169
:1013B000012054E0090500F1D18106F08401802963
:1013C00040F0FE8010F4806000F0FA80204601B00A
:1013D000BDE8F04001F03ABD00200090796900912D
:1013E000B9690091009984F83C0001B0F0BD00BFDC
:1013F0000EF0F701212940F0958006F08401802944
:1014000040F0648110F4806000F0608194F83D0049
:10141000618D002900F0A281616A11F8012B3A6107
:101420006162618D01396185618D002908BF2928BC
:1014300040F094817868282120F480607860212031
:101440002063204684F83D1001B0BDE8F04000F074
:101450003BBC00BFE06AB0F12A4F01D10820E06236
:1014600094F83E0040280BD1206D616C002801F0FB
:10147000FE0018BF40F00100386101B0F0BD00BFB0
:101480002069B0F5804F7BD194F83D00616C212834
:1014900001F0FE0118BF01313961606B08B1806A4B
:1014A00038B9A06B002800F05981806A002800F04C
:1014B0005581786840F40060786001B0F0BD00BFED
:1014C0004FF0010CB1078CEA522C7FF52DAF002AAA
:1014D0003FF42AAF94F83E30E06A226B94F83D1056
:1014E000222940F0FF80216D002908BF402B00F029
:1014F000F980216D002940F033812169B1F5404F19
:1015000040F02E810020009078690090B86900902A
:101510000098386840F480703860206D0130206594
:1015200001B0F0BD06F04401402940F0E58010F420
:10153000806000F0E18094F83D00618D002900F0AA
:101540000D813969626A1170616A01316162618D70
:1015500001396185618D002908BF2A2840F0FE808D
:101560002068416821F480614160222028212063A5
:10157000204684F83D1001B0BDE8F04000F0A2BB69
:10158000206D002800F0C880206D012840F0E68022
:10159000606C062101EAD010F130386101B0F0BD75
:1015A00006F00400012181EA900050EA0C0040F0AE
:1015B000D580204601B0BDE8F04001F0E5BA00BF9B
:1015C00006F00400012181EA900050EA0C0040F08E
:1015D000C580BEF1210F40F0B980204601B0BDE8C2
:1015E000F04001F0F1BB00BF56F8340F01684968C4
:1015F00026F80A1C36F80A1C19B1216C41F00401C6
:101600002164796821F400617960FFF70FFA0128FD
:101610000BD0306842F26D71C0F600014163FFF7F4
:101620006DF910B13068416B8847608D60B12068FA
:101630004169490730D4416949063AD4608D18B1EF
:10164000206C40F004002064206C28B1204601B0DA
:10165000BDE8F04001F0D2B92A2D07D10020206367
:10166000282084F83D00204600F02CFB94F83D0033
:10167000282859D10020CFF6FF70E06200212020F9
:10168000216384F83D00204684F83E1001B0BDE897
:10169000F04000F0C1B900BF0069616A0870616A7A
:1016A000206801316162618D0139618541694906B6
:1016B000C4D50069616A0870606A01306062608D3B
:1016C00001386085608D0028BAD1BDE7700745D527
:1016D000002B43D0608D002840D0606A10F8011BB9
:1016E000396113E00020009078690090B86900909B
:1016F000009801B0F0BD00BF70072FD573B3608DA7
:1017000060B33869616A0870606A01306062608D38
:101710000138608522E000BF606C062101EAD0102C
:10172000F030386101B0F0BD206B222818BF222DA7
:1017300014D100212020216384F83D00204684F844
:101740003E1001B0BDE8F04000F0BCBA402B05D11E
:10175000204601B0BDE8F04001F0D2BB01B0F0BDC1
:10176000618D51B1618D012916D1202818BF08283B
:1017700042D1386820F48060386000200090786999
:101780000090B86900900098386840F400703860A4
:101790000020206501B0F0BD618D022914D1102810
:1017A0004ED8012114228140C0F20102114247D0DB
:1017B000396841F4806139600021009179690091B4
:1017C000B969009100994AE0396841F48061396053
:1017D000796809055DD5421E1F2A57D8012191401D
:1017E00048F28102C8F2000211424FD0786840F4FA
:1017F000805078604DE000BF10F5803F0CD1386814
:1018000020F48060386078680005B6D5386820F428
:10181000806038603DE000BF122A01D10128A8D1C4
:101820001028F3D8012101FA00F01421C0F20101BF
:101830000842EBD0386840F48060386029E000BF8F
:10184000396841F4006139600021009179690091A3
:10185000B96900910099396821F48061396079682B
:1018600009051DD5421E1F2A1ED80121914048F2AC
:101870008102C8F20002114216D0786840F480500C
:1018800078600020206501B0F0BD00BF10F5803FFA
:10189000ACD00020009078690090B8690090009862
:1018A0000020206501B0F0BD10F5803FE5D0F7E7DE
:1018B00070470000002804BF01207047F0B581B0D8
:1018C000044690F83D0028B9002084F83C002046EA
:1018D00000F080F9242084F83D002068016821F0A0
:1018E00001010160016841F400410160016821F4D7
:1018F0000041016000F082FB636848F2A16CC0F215
:10190000010C40F60011C0F23D0163453CBF48F2B6
:101910008041C0F21E01884202D2012001B0F0BD18
:101920004DF68361C4F21B31A0FB01122168970CB4
:10193000D1F804E04FF496762EF03F0545EA924543
:101940004D60774348F638160D6AC0F24106A7FB92
:10195000067625F03F07634538BF960C721C3A4364
:101960000A62CA6948F2A0664CF6FF77C0F2010627
:10197000B34222EA07020BD801385B00B0FBF3F058
:1019800001306FF31F30042898BF04201BE000BF14
:10199000A768013857B119277B43B0FBF3F001303A
:1019A0006FF31F3070B100F5804007E003EB430395
:1019B000B0FBF3F001306FF31F3018B100F50040B9
:1019C00001E000BF01201043C8610868D4E9072383
:1019D00020F0C000104318430860886848F2FF32C6
:1019E00004F10C0790438CCF18431043A66988601C
:1019F000C86820F0FF0038433043C860086840F0F2
:101A00000100086000202021206484F83D1020633C
:101A100084F83E0001B0F0BD704700007047000040
:101A20007047000070B582B004460020019094F821
:101A30003D00202837D140F21400C2F200000068B7
:101A40004BF28956C008C1F2F846A0FB0606300AE0
:101A5000192670430190019801380190019838B31C
:101A60002568A86980071AD5019801380190019866
:101A7000F0B12568A869800711D501980138019057
:101A80000198A8B12568A869800708D50198013890
:101A90000190019860B12568A8698007DBD494F8AB
:101AA0003C00012814D10226304602B070BD00BFB0
:101AB00000202021206384F83D1084F83E00206C33
:101AC000022640F020002064304602B070BD00BF06
:101AD000012084F83C002868C00703D1286840F042
:101AE000010028602868002620F40060286021207A
:101AF00084F83D00102084F83E002664626263850D
:101B0000638D0020CFF6FF702385E06261642BB304
:101B1000606BA8B342F6CD0142F6910CC0F600010D
:101B2000C0F6000C00F1280E8EE8421005F1100CF2
:101B3000114662464663FFF715F988B3202084F802
:101B40003D0084F83E60206C40F01000206484F872
:101B50003C600126304602B070BD00BF286840F4EA
:101B600080602860286840F48070286084F83C60B9
:101B7000686840F4E0606860304602B070BD00BF45
:101B8000202084F83D00002084F83E00216C0126CE
:101B900041F08001216484F83C00304602B070BD01
:101BA000206884F83C60416841F4407141604168BC
:101BB00041F400614160016841F4806101600168A5
:101BC00041F480710160304602B070BD7047000082
:101BD000704700002DE9F04186B0044645F2004010
:101BE0002168C4F2000000278142049702D006B0A9
:101BF000BDE8F08141F21805C4F20205296840F2FF
:101C00006C0841F008012960296800F5384001F0AE
:101C1000080101910199C021029112210391032130
:101C2000059102A9C4F20208FFF76EF968688026E0
:101C300040F400106860686840F2D06500F400105D
:101C40000190019808F11400C2F20005C5E90007EF
:101C50002846C5E90276C5E90477C5E90677FFF7A6
:101C600031F8002818BFFEF743FEA5636C6240F20E
:101C70001475C2F2000510200021C5E90080284635
:101C8000C5E90216C5E90411C5E90611FFF71AF8FE
:101C9000002818BFFEF72CFE1F20002100226563DC
:101CA0006C6200F08DF81F2000F078F820200021F1
:101CB000002200F085F8202000F070F806B0BDE8A2
:101CC000F0810000704700007047000040F20C00F7
:101CD00040F2F471C2F20000C2F2000100780A681A
:101CE000104408607047000080B542F20000C4F262
:101CF0000200016841F010010160032000F08CF83F
:101D00000F2000F005F800F027F8002080BD00004B
:101D100070B540F20C06C2F2000640F214013278AF
:101D2000C2F200014FF47A730968B3FBF2F2044681
:101D3000B1FBF2F1084600F089FB0F2C4FF00105D2
:101D400008D838B94FF0FF3021460022002500F0B6
:101D500037F87460284670BD82B041F21800C4F2B2
:101D600002000168022241F001010160016801F0F6
:101D7000010101910199416841F080514160406841
:101D800000F08050009000980420C4F20100016827
:101D900062F31A61016002B070470000002848BF7A
:101DA000704700F01F01012202FA01F11C2202EA31
:101DB000D0004EF20012CEF20002815070470000B7
:101DC00010B54EF60C5CCEF2000CDCF80030C3F31C
:101DD000022E8EF00704042C28BF0424BEF1030356
:101DE0004FF0FF3E0EFA04F438BF0023A1439940A0
:101DF0000EFA03F39A43114300F00F0200F160431F
:101E00000901043A03F564436244002848BF02F123
:101E10000C03197010BD00004EF60C51CEF20001FB
:101E20000A684FF6FF031A4060F30A2242F080600E
:101E300040F0FD7008607047002804BF0120704723
:101E40002DE9F04381B042F20008C4F202080446D2
:101E5000D8F800000D4600F0070088420CD2D8F8F0
:101E6000000020F007002843C8F80000D8F8000060
:101E700000F00700A8426CD1206841F204098107F4
:101E8000C4F2020917D5410705D5D9F8001041F46D
:101E9000E061C9F80010010705D5D9F8001041F438
:101EA0006051C9F80010D9F80010A26821F0F001C3
:101EB0001143C9F80010C00742D1D8F8000000F063
:101EC0000700A8420CD9D8F8000020F007002843EA
:101ED000C8F80000D8F8000000F00700A84238D188
:101EE0002068410707D5D9F80010E26821F4E061C5
:101EF0001143C9F80010000708D5D9F8000021697E
:101F000020F4605040EAC100C9F80000D9F8002070
:101F100002F00C00082841F20020C0F27A0051D1F2
:101F200044F60013C2F38341C0F60003595CD203A8
:101F30003CD440F60010C0F23D00484342E000BFF0
:101F4000606802280AD001282AD159F8041C8903A4
:101F500008D4012001B0BDE8F08300BF59F8041C8B
:101F60008901F6D5D9F8001021F003010843C9F81A
:101F70000000FFF7C9F8064641F28837D9F800009B
:101F8000616800F00C00B0EB810F96D0FFF7BCF851
:101F9000801BB842F2D9032001B0BDE8F08300BF36
:101FA00059F8041C8907D4D5DCE700BFD9F8002014
:101FB00044F2CC63C2F34042C0F600039A5C48434B
:101FC000B0FBF2F0D9F8001044F2B462C1F303118F
:101FD000C0F60002515C40F2140220FA01F140F216
:101FE0001000C2F200000068C2F200021160FFF7A8
:101FF0008FFE002001B0BDE8F083000040F2140025
:1020000041F20401C2F20000C4F202010068096852
:1020100044F2C462C1F30221C0F60002515CC84020
:102020007047000040F2140041F20401C2F20000C7
:10203000C4F202010068096844F2C462C1F3C2211B
:10204000C0F60002515CC84070470000002804BF81
:10205000012070472DE9F04182B00446007841F23A
:102060000006C007C4F202060CD0706800F00C0035
:10207000042840F081803068800303D56068002820
:1020800000F04E81207880071BD5706810F00C0F8F
:1020900009D0706800F00C00082840F08B80706850
:1020A000C00300F187803068800703D520690128CC
:1020B00040F036813068616920F0F80040EAC100E4
:1020C00030602078000713D4207840072CD4E569CD
:1020D000002D00F02081706800F00C00082840F00E
:1020E000AF80012D40F00C81012002B0BDE8F081ED
:1020F000A069002800F08C800020C4F24220012159
:10210000C0F88014FFF700F8054600BF706A80072A
:1021100000F1BA80FEF7F8FF401B0228F6D9032031
:1021200002B0BDE8F08100BFF0695FEAC00808D4E2
:10213000F06940F08050F061F06900F0805000904C
:10214000009847F20007C4F200073868C0054DD474
:10215000386840F480703860FEF7D6FF054600BF4F
:102160003868C00542D4FEF7CFFF401B6428F7D97A
:10217000032002B0BDE8F081706800F00C00082870
:1021800003D17068C0033FF576AF6068002800F0A7
:102190000981B0F5A02F00F01D81B0F5803F00F05F
:1021A0001D81306820F480303060306820F4802059
:1021B00017E100BF2069002840F20000C4F242206D
:1021C00000F08C8001210160FEF79EFF054600BFF4
:1021D000306880073FF56EAFFEF796FF401B022880
:1021E000F6D9032002B0BDE8F08100BFE068002806
:1021F00000F09A80052800F0B180012800F0B2803C
:10220000306A20F001003062306A20F00400ACE057
:102210000020C4F242200021C0F88014FEF774FFB1
:10222000054600BF706A80077FF54EAFFEF76CFF72
:10223000401B0228F6D9032002B0BDE8F08100BFA0
:102240000027C4F2422700203866FEF75DFF022D0A
:1022500005460DD13068800140F1D680FEF754FF6D
:10226000401B02284FF00300F4D902B0BDE8F08112
:10227000306880014FD5FEF747FF401B02284FF022
:102280000300F5D9F1E700BF40F21400C2F20000EC
:10229000006844F6D351C1F26201A0FB0101480A73
:1022A000019000BF00BF0198411E002801913FF43A
:1022B0000BAF00BF0198411E002801913FF404AF0D
:1022C00000BF0198411E002801913FF4FDAE00BF00
:1022D0000198411E00280191E4D1F5E6002101603A
:1022E000FEF712FF054600BF306880077FF5E9AEB4
:1022F000FEF70AFF401B02284FF00300F4D9B4E7B1
:102300007068216A00F480328A4209D1616A00F45F
:102310007010884204D1002002B0BDE8F08100BFF7
:10232000012002B0BDE8F081306A20F00100306287
:10233000306A20F004003062FEF7E6FE054641F206
:10234000883700BF306A800722D5FEF7DDFE401BCC
:10235000B8424FF00300F5D987E700BF306A40F07C
:1023600004003062306A40F001003062FEF7CCFEBB
:10237000054641F2883700BF306A800708D4FEF76F
:10238000C3FE401BB842F7D9032002B0BDE8F0817C
:10239000B8F1000F3FF59BAEF06920F08050F0617E
:1023A00095E600BF306820F480303060306820F45B
:1023B00080203060FEF7A8FE054600BF306880032D
:1023C0007FF560AEFEF7A0FE401B64284FF00300CF
:1023D000F4D94AE7306840F480203060306840F437
:1023E00080303060FEF790FE054600BF3068800305
:1023F0003FF548AEFEF788FE401B6428F6D903205F
:1024000002B0BDE8F08100BF206AB0F5803F05D181
:102410007168A26821F40031114371607168626AC9
:1024200021F4741111430843706001203866FEF7EF
:102430006BFE0446306880013FF56DAFFEF764FE29
:10244000001B02284FF00300F4D90EE7411E0020C4
:10245000B0EB116F1CBF012070474EF21002CEF29C
:10246000000251604EF62351CEF20001F0230B70B2
:102470000721906011607047002804BF0120704759
:1024800010B5044690F8410028B9002084F84000B7
:10249000204600F063F8242084F841002068D4E945
:1024A0000212C36823F40053C360036923F440534A
:1024B0001A430261D4E904231143C268194341F26B
:1024C0000C639A431143C1604169A26921F44071D0
:1024D000114343F60002C4F201029042416103D06D
:1024E000FFF78CFD02E000BFFFF79CFDD4E900235D
:1024F000192148439900B0FBF1F048F21F5CC5F286
:10250000EB1CA0FB0C314FF69C734909C0F6FF731E
:1025100001FB0300322303EB0010A0FB0C03F020AF
:1025200000EA531000EB0110C3F34311084490601C
:102530001069202120F490401061506920F02A0099
:102540005061D06840F40050D0600020606484F88E
:10255000411084F84210606310BD000070B586B071
:1025600040F60004C4F20104006804F5405100265E
:102570008842049602D006B070BD00BF41F2180038
:10258000C4F20200016802AD41F4804101600168BB
:1025900001F4804101910199016841F00401016059
:1025A0000068294600F00400019001984FF4007083
:1025B000029002200390032005902046FEF7A4FC21
:1025C0004FF48060CDE90206204629460496FEF7C6
:1025D0009BFC06B070BD00002DE9F041044690F868
:1025E000410020281CBF0220BDE8F0810D460029D3
:1025F0004FF0010000F0AA801646002A08BFBDE88F
:10260000F081002060642120984684F84100FEF7A4
:102610007BFDA684E684A1680646B1F5805F02D101
:102620002069002862D02F460025E08C002861D068
:1026300018F1010018D0B8F1000F37D1216808E077
:1026400017F8010B4860E08C0138E084E08C00282A
:1026500051D00868000673D5002FF1D135F8020B70
:1026600000276FF35F20EDE7216802E008680006AD
:1026700009D40868000606D4086800065CBF08682C
:102680005FEA0060F2D51FB117F8010B05E000BF4B
:1026900035F8020B00276FF35F204860E08C0138AB
:1026A000E084E08C0028E4D125E000BF216800BF71
:1026B0000868000608D4FEF727FD801B404541D876
:1026C0002168C868F4E700BF17B117F8010B04E0F0
:1026D00035F8020B00276FF35F204860E08C01386B
:1026E000E084E08C0028E3D105E000BF0027E08C07
:1026F00000289DD12168086840061FD4B8F1000F5A
:102700001ED018F101000FD10868400616D40868E1
:10271000400613D40868400610D4086840064FF0FD
:102720000000F1D50FE000BFFEF7EEFC801B404536
:1027300008D82068C16800684006F5D5002002E08E
:10274000FEF7E2FC0320202184F84110BDE8F0816F
:10275000FEE7000040F25870C2F20000FEF7DEBC57
:1027600040F25870C2F20000FEF782BD10B581B091
:1027700000210091406A40F21401C2F2000190F879
:102780003DC009684BF28952C908C1F2F842A1FB69
:102790000212110A232251430091009911B30099AA
:1027A000013900910168096889051FD50099C9B1EF
:1027B00000990139009101680968890516D50099C9
:1027C00081B10099013900910168096889050DD529
:1027D000009939B1009901390091016809688905AA
:1027E000DBD403E0016C41F020010164446B4FF045
:1027F000000E002C1CBF0021A162816B00291CBFB0
:1028000000228A620268002C136823F4806313603C
:10281000A0F82AE018BFC4F834E000291CBF002348
:102820004B63116821F00101116090F83D1060299F
:102830000CD1202180F83D10002180F83E10016469
:1028400001B0BDE81040FEF765BC00BF0CF02801E8
:10285000282911D1116841F001011160116841F47A
:102860008061116000210163282180F83D1001B0D2
:10287000BDE81040FFF71CB8202180F83D10002172
:1028800080F83E1001B0BDE81040FFF711B800001D
:10289000406A416B00291CBF00228A62816B0029BB
:1028A0001CBF00228A6201680A6822F480620A6002
:1028B00000212022418580F83D2080F83E10016CE7
:1028C00041F010010164FEF7F3BF000010B5446A47
:1028D00094F83D2094F83EE0D4F82CC02168606B59
:1028E0004B68002823F440734B601CBF00238362B5
:1028F000A06B00281CBF0023836202F02100212866
:1029000020D002F02200222808BFBEF1200F19D0EB
:1029100094F83E00002808BF10BD608D012803D147
:10292000086820F4806008604868BCF1070F20F454
:102930004070486028DCBCF12A4F2BD01CF5803F4A
:1029400028D02BE048682A2A20F4006048604FF025
:10295000000060850AD0292A10D121202063282078
:1029600084F83D002046FFF7AFF907E022202063FE
:10297000282084F83D002046FFF7A4F9206841682C
:1029800041F44071416010BDBCF1200F02D0BCF198
:10299000080F03D1086840F400700860486820F40C
:1029A00080504860486820F40060486000216185DC
:1029B000206C28B12046BDE81040FEF779BF00BF6B
:1029C000202084F83D0094F83E0084F83E10402812
:1029D00006D120462163BDE81040FFF7F7B800BFDD
:1029E000BCF1080018BF1220BCF1200118BF01463D
:1029F00020462163BDE81040FFF710B810B504462B
:102A000090F83D1090F83E00B0F1100218BF01227E
:102A1000403818BF0120024208BF222934D001F0FB
:102A2000280028283AD100202063282084F83D007F
:102A300020684168090542D5416821F40061416080
:102A4000606B90F82110012958D1A06B42F26D7192
:102A5000C0F600014163FDF751FF002861D02068F6
:102A60004169490606D50069616A0870616A206893
:102A700001316162016821F001010160202084F8C8
:102A80003D00A06B4BE000BF2068026822F40062AA
:102A900002604268120505D50CE000BF206842685C
:102AA000120507D4602905D0202184F83D100021AB
:102AB00084F83E100021216341680905BCD494F8D4
:102AC0003D10602950D1202184F83D10002121645F
:102AD0004169490606D50069616A0870616A206823
:102AE00001316162016821F0010101602046FEF7B9
:102AF00011FB206C000717D11BE000BF42F26D7183
:102B0000C0F600014163FDF7F9FE50B12168606B2A
:102B10000A6822F001020A60202184F83D10416B0E
:102B20008847206C000704D02068416821F4E061E8
:102B3000416094F83D00216C490758BF10BD28281A
:102B400010D10020CFF6FF70E06200212020216329
:102B500084F83D00204684F83E10BDE81040FEF7A2
:102B60005BBF00BF10BD00BF4169490605D50069C4
:102B7000616A0870606A013060622046FEF798FE64
:102B8000206C0007D0D1D4E7C16A428D042A07D156
:102B90000168426A4B6823F480634B60096911E065
:102BA000428D032A16D102680229536823F48063F8
:102BB000536005D0042903D0116821F480611160AD
:102BC0001169426A1170416A01314162418D0139D6
:102BD00041857047428D022A12D14A1E0F2A19D808
:102BE000DFE802F008121812181818181818181828
:102BF000181818080268136823F480630EE000BFF9
:102C00000168426ACAE700BF0268136843F4806340
:102C100004E000BF0268136843F400731360126994
:102C2000436A1A70426AD0F800C0531C4362438D55
:102C3000013B4385DCF810305370426A036801326F
:102C40004262428D013A42855A6822F440725A60CB
:102C5000202280F83D2090F83E300022402B80F862
:102C60003E2003D10263FEF7B1BF00BFB1F10802FD
:102C700018BF1222203918BF11460163FEF7CEBEDD
:102C800081B090F83D10222910D1C16A428D042AEA
:102C90000ED30168426A09691170416A01314162CB
:102CA000418D01394185418D03295DD001B07047C7
:102CB000C36A012A58D8022B56D00022009240F253
:102CC0001402C2F2000212684BF28953D208C1F218
:102CD000F843A2FB03231A0A02EB82020092009A35
:102CE000013A0092009A002A46D0026813689B05B8
:102CF0001AD5009A013A0092009AEAB30268136862
:102D00009B0511D5009A013A0092009AA2B302687D
:102D100013689B0508D5009A013A0092009A5AB3AD
:102D2000026813689B05DAD4136823F48063136088
:102D3000536823F4E06353601269436A1A70426A6D
:102D400001324262428D013A4285202280F83D20C4
:102D500090F83E300022402B80F83E2028D10263BC
:102D600001B0FEF733BF00BF0068416821F4806105
:102D7000416001B0704700BF016C41F02001016467
:102D80000168426A4B6823F4E0634B600969117083
:102D9000416A01314162418D01394185202180F82C
:102DA0003D10002180F83E1001B0FEF781BD00BF4C
:102DB000B1F1080218BF1222203918BF1146016371
:102DC00001B0FEF72BBE0000C16A90F83D20212A19
:102DD00018BF7047428D4AB1416A026811F8013B41
:102DE00013614162418D01394185704711F5803F82
:102DF00018BF082918D101684A6822F4E0624A60C5
:102E00000A6842F400720A6000212022016380F8FF
:102E10003D2090F83E2080F83E10402A08BFFEF783
:102E2000D7BEFEF7FDBD00BF2029E4D001684A6887
:102E300022F4E0624A6011210163002180F83E1013
:102E4000202180F83D10FEF7EBBD000090F83D100A
:102E500090F83EC0C26A038D002B08BF212919D00B
:102E6000212905D0BCF1400F08BF222900D07047AE
:102E7000418D69B390F83E10402908BF00F040B87A
:102E8000416A026811F8013B13614162418D0139C9
:102E90004185704712F5803F18BF082A1ED101688E
:102EA0004A6822F4E0624A600A6842F400720A60EA
:102EB00000212022016380F83D2090F83E2080F818
:102EC0003E10402A08BFFEF783BEFEF7A9BD00BF33
:102ED0000068416821F4806141607047202ADED09B
:102EE00001684A6822F4E0624A601121016300210E
:102EF00080F83E10202180F83D10FEF791BD0000C3
:102F000090F83D10026D5AB1026D012A14D101688A
:102F1000826CD2B20A61016D01310165704700BF58
:102F2000C26C816C012A15D10268C9B21161016DB0
:102F300002310165704700BF026D022A12D12229B9
:102F400018D101680A6842F480720A60016D01318B
:102F5000016570470268C1F307211161016D0131FC
:102F60000165704700684169090644BF002101619D
:102F7000704700BF428D5AB1212909D1416A0268C8
:102F800011F8013B13614162418D01394185704760
:102F9000428D002A08BF2129EAD101684A6822F43B
:102FA000E0624A600A6842F400720A60002120224E
:102FB000016380F83D2080F83E10FEF709BE000056
:102FC00080B582B041F21400C4F202000168002210
:102FD00041F0010101600068002100F00100019052
:102FE00001981020FEF7ECFE1020FEF7D7FE11200E
:102FF00000210022FEF7E4FE112002B0BDE880406F
:10300000FEF7CCBEF0B585B00020049041F2180068
:10301000C4F20200016840F6000441F010010160B2
:103020000168002601F01001009100990168C4F2C6
:10303000010441F004010160016801AD01F00401E7
:10304000009100990168C1F2310641F00801016068
:103050000068022700F00800009000984FF400502C
:10306000019004F50060294602960397FDF74CFF96
:10307000012001A9C1C120462946FDF745FF0620D0
:1030800000210022FEF79CFE0620FEF787FE282086
:1030900000210022FEF794FE2820FEF77FFE05B0F7
:1030A000F0BD000080B540F2587045F20041C2F218
:1030B0000000C4F2000141F6802200234FF4804C4E
:1030C000C0F2060280E80E00C0E9033CC0E9053307
:1030D000C0E90733FEF7EEFB002808BF80BDBDE85E
:1030E0008040FDF705BC000080B540F2AC7043F6AF
:1030F0000001C2F20000C4F2010100234FF00C0CE9
:103100004FF4E13280E80E00C0E90333C0E905C3A3
:10311000C361FFF7B1F9002808BF80BDBDE880405A
:10312000FDF7E6BBFEE70000FEE70000002B08BF4E
:1031300070472DE9F04381B00646DDF82080104449
:103140001C468946002507B205EB090001B230464E
:103150003A460B46CDF8008000F05AF80135A8B287
:10316000A042F1D301B0BDE8F04370472DE9F04F24
:1031700083B00546AE180C460230B11EDDF830A013
:103180000FFA81F80FFA80F91F4648462146424659
:103190002346CDF800A000F03BF8601C01B2484681
:1031A00042460B46CDF800A000F032F8052FA7F1FB
:1031B0000200029011D34FF0040B36B20BEB040067
:1031C000023801B2284632460B46CDF800A000F086
:1031D0001FF80BF1010B5F45F0D10298C5B2BD425B
:1031E00013D2281901B2484642460B46CDF800A03A
:1031F00000F00EF8681CC0B2204401B248464246B6
:103200000B46CDF800A000F003F803B0BDE8F08F46
:103210002DE9F04F81B082421AD199421A46C8BFB7
:103220000A46B8BF0B46802832D310B2591C09B2E7
:10323000814229DC991C09B2814225DCD91C09B2E2
:10324000814221DC191D0BB28342EFDD1CE000BF7F
:103250008B4253D190421346C8BF0346B8BF0246C3
:103260004029C0F0AB8018B2511C09B281420BDC7E
:10327000911C09B2814207DCD11C09B2814203DCF6
:10328000111D0AB28242EFDD01B0BDE8F08F00BF30
:103290000A9940F24C26002980B211B24FF6F87C10
:1032A0004FF00107C2F2000604D117E05A1C13B216
:1032B0008B42E9DC9DB23F2DF8D803EA0C0506EB02
:1032C000051503F007042A5C07FA04F462402A5447
:1032D000ECE700BF5A1C13B28B42D5DC9DB23F2DE8
:1032E000F8D803EA0C0506EB051503F007042A5C81
:1032F00007FA04F422432A54ECE700BFA2EB0008CB
:103300000FFA88F6A3EB01090FFA89F588EAE63788
:10331000012E4FF0010EA7EBE63689EAE537B8BF7C
:103320004FF0FF3E012DA7EBE5354FF0010B0FFAF3
:1033300085F90FFA86FAB8BF4FF0FF3BCA4540F354
:10334000AB800023CDF800A00FE000BF1BB24B44C0
:103350001F041EB27044BAEBE73FDCBF5944A6EB32
:103360000A0387B296B2B7428ED087B27F2FEDD8CC
:103370008CB23F2CEAD84FF6F87601EA060440F208
:103380004C26C2F20006CA46D946F34606EB041E96
:1033900001F0070C1EF80780012404FA0CF50A9CC2
:1033A00088EA0506002C08BF48EA05060EF8076003
:1033B000DE46CB46D146DDF800A0C7E78FB201F06C
:1033C0000700012101FA00F00A99FF08002919B24B
:1033D00040F24C23C2F2000303EBC71305D132E0E5
:1033E000043212B28A423FF74FAF97B27F2F02D812
:1033F000DE5D4640DE55571C3EB28E423FF744AF7D
:10340000BFB27F2F02D8DE5D4640DE55971C3EB22C
:103410008E423FF739AFBFB27F2F02D8DE5D464004
:10342000DE55D71C3EB28E423FF72EAFBFB27F2F84
:10343000D6D8DE5D4640DE55D2E700BF043212B278
:103440008A423FF721AF97B27F2F02D8DE5D064355
:10345000DE55571C3EB28E423FF716AFBFB27F2FEC
:1034600002D8DE5D0643DE55971C3EB28E423FF722
:103470000BAFBFB27F2F02D8DE5D0643DE55D71CEF
:103480003EB28E423FF700AFBFB27F2FD6D8DE5D8F
:103490000643DE55D2E700BF00220FE012B25244CD
:1034A000140415B25944B9EBE43FDCBF7044A5EBFA
:1034B00009028CB29DB2AC423FF4E6AE87B27F2FD8
:1034C000ECD88EB23F2EE9D84FF6F87640F24C2475
:1034D0000E40C2F2000404EB061601F0070CF55D85
:1034E000012404FA0CF4DDF828C085EA0408BCF1D4
:1034F000000F08BF45EA040806F80780CEE7000081
:103500002DE9F04182B006461044DDF8208005B276
:103510001F4630462A460B460C46CDF80080FFF782
:1035200077FE381907B2304639462A463B46CDF871
:103530000080FFF76DFE3046214632463B46CDF80F
:103540000080FFF765FE284621462A463B46CDF817
:103550000080FFF75DFE02B0BDE8F081B0B540F23B
:103560004C6440F25875C2F20004AE20C2F200056D
:10357000607000BF2846782122460223FEF752FAE7
:103580000028F7D140F258752020C2F20005607083
:103590002846782122460223FEF744FA0028F7D174
:1035A00040F258751020C2F200056070284678215C
:1035B00022460223FEF736FA0028F7D140F258756A
:1035C000B020C2F20005607028467821224602230E
:1035D000FEF728FA0028F7D140F25875C820C2F249
:1035E000000560702846782122460223FEF71AFA69
:1035F0000028F7D140F258750020C2F20005607033
:103600002846782122460223FEF70CFA0028F7D13B
:1036100040F258751020C2F20005607028467821EB
:1036200022460223FEF7FEF90028F7D140F2587532
:103630004020C2F20005607028467821224602230D
:10364000FEF7F0F90028F7D140F258758120C2F258
:10365000000560702846782122460223FEF7E2F931
:103660000028F7D140F25875DF20C2F200056070E3
:103670002846782122460223FEF7D4F90028F7D104
:1036800040F25875A120C2F20005607028467821EA
:1036900022460223FEF7C6F90028F7D140F25875FA
:1036A000A620C2F200056070284678212246022337
:1036B000FEF7B8F90028F7D140F25875A820C2F2F9
:1036C000000560702846782122460223FEF7AAF9F9
:1036D0000028F7D140F258753F20C2F20005607013
:1036E0002846782122460223FEF79CF90028F7D1CC
:1036F00040F25875A420C2F2000560702846782177
:1037000022460223FEF78EF90028F7D140F25875C1
:10371000D320C2F200056070284678212246022399
:10372000FEF780F90028F7D140F258750020C2F268
:10373000000560702846782122460223FEF772F9C0
:103740000028F7D140F25875D520C2F2000560700C
:103750002846782122460223FEF764F90028F7D193
:1037600040F25875F020C2F20005607028467821BA
:1037700022460223FEF756F90028F7D140F2587589
:10378000D920C2F200056070284678212246022323
:10379000FEF748F90028F7D140F258752220C2F20E
:1037A000000560702846782122460223FEF73AF988
:1037B0000028F7D140F25875DA20C2F20005607097
:1037C0002846782122460223FEF72CF90028F7D15B
:1037D00040F258751220C2F2000560702846782128
:1037E00022460223FEF71EF90028F7D140F2587551
:1037F000DB20C2F2000560702846782122460223B1
:10380000FEF710F90028F7D140F258752020C2F2D7
:10381000000560702846782122460223FEF702F94F
:103820000028F7D140F258758D20C2F20005607073
:103830002846782122460223FEF7F4F80028F7D123
:1038400040F258751420C2F20005607028467821B5
:1038500022460223FEF7E6F80028F7D140F24C207A
:10386000C2F200004FF48061FCF797FC00F0BCFA54
:1038700040F25875AF20C2F20005607028467821EA
:1038800022460223FEF7CEF80028F7D1B0BD000093
:1038900080B540F24C20C2F200004FF48061FCF78A
:1038A0007CFC80BD2DE9F04782B09A46137813B3B3
:1038B0000646DDF828809AF801008946571E00BFA9
:1038C0009AF80050A3F12002EB1DDAF80410DC088E
:1038D000C3B202FB03F000FB041270B24946CDE90B
:1038E000005800F09DF89AF80100BB780644002BC0
:1038F00007F10107E4D102B0BDE8F0872DE9F047F8
:10390000C1F3023E8E440EF0F8040C1B11F1080FB7
:1039100088BF01F10804E1B2DDF820C04FFA8EF54E
:1039200001EB030EBEF1090F4FEAE5034CD300286B
:1039300024D4072B22D8C1F10807FF2626FA07F95D
:1039400040F24C265FFA83F8C2F2000602FA01F454
:103950005FFA80FA06EBC816BCF1000F18BFE4430B
:1039600016F80A8044EA090508EA05086FF0FF0521
:103970003D412C4044EA080406F80A4000284DD492
:103980000133072B4AD80EF1F707C1F1080122FADB
:1039900001F1DAB2FBB24FF4FF7707FA03F340F21A
:1039A0004C27C2F20007C0B207EBC212BCF1000FF5
:1039B00018BFC943175C41EA0306374099433943AE
:1039C0001154BDE8F08700BF002827D4072B88BF1B
:1039D000BDE8F087AEF10107FFB24FF4FF7640F289
:1039E0004C258A40DBB206FA07F7C1F10801FF2631
:1039F000C2F20005C0B2CE4005EBC313BCF1000F0C
:103A000018BFD24316431D5C3E432E406FF0FF05A6
:103A100045FA01F1B943114031431954BDE8F0872B
:103A20002DE9F04F8FB08B46002B05921946069377
:103A300000F0D681DDE918198046B9F1000F4D4636
:103A40004FEAD10018BF4FF0FF35082901F00704F5
:103A5000019003D2002C40F0A481C1E1012898BF5D
:103A6000012000F01E010B91069900274A00C007B3
:103A70000D9102A90A9281E81101079525E000BF86
:103A8000421ED1B24FF4FF7202FA01F140F24C2211
:103A9000F3B2C2F2000202EBC312099BC9F10800A3
:103AA00024FA00F0D618D25C684040EA01031A40BC
:103AB0008843104330700698013787420D98039C65
:103AC00000F101000D9000F0678107EB080041B2A2
:103AD0000E91C1B218984FF0000A102840F24C2005
:103AE000C2F200000844099108900C9722D2029873
:103AF000DDF810800028DED00699059B0AFB0171D5
:103B00000BEBCA00C2B25C5CF82A40F209810E9944
:103B10000029D0D4C11D0830C0B2089EC0F10800F1
:103B2000C9B24FF4FF7224FA00F002FA01F13278C0
:103B3000BAE700BFDDF8148023E000BF421ED1B217
:103B40004FF4FF7202FA01F140F24C22F3B2C2F2DA
:103B5000000202EBC312099BC9F1080024FA00F02D
:103B6000D618D25C684040EA010302EA03048843A5
:103B7000204330700B980AF1020A50450A9880449D
:103B8000B5D00BEBCA0E5FFA8EF018F80740F82894
:103B900014D90E9800286CD40EF10800C0B2089E0B
:103BA0000EF10701C0F1080024FA00F0C9B24FF489
:103BB000FF723378684002FA01F152E04FFA8EF05A
:103BC000C0F30230704441B220F00700AEEB000CAD
:103BD0000E98C91000285FFA8CF023D4072921D849
:103BE00004FA00F6C0F10807FF226E4022FA07F53A
:103BF00040F24C22CBB2C2F20002DDF8249002EB7C
:103C0000C3135A4613F809B0354305EA0B0593462A
:103C10006FF0FF0242FA07F73E4035430C9F03F86E
:103C20000950079D5FEA0C6323D00E9A002A20D426
:103C3000013107291DD8ACF10103CFB2D9B24FF43D
:103C4000FF7202FA01F140F24C22C2F2000202EBD2
:103C5000C713099AC0F1080024FA00F09E189B5C73
:103C6000684040EA010703EA070488430C9F2043A9
:103C700030700D9A0EF10800C1B218F80240F82910
:103C800012D90E9900293FF575AFC11D0830C0B299
:103C9000089EC0F10800C9B24FF4FF7224FA00F088
:103CA00002FA01F132785DE741B2C1F30231014419
:103CB0004BB221F00701401A0E99DE1000295FFA7D
:103CC00080F921D4072E1FD804FA09F36B40C9F1FB
:103CD0000805FF2222FA05FC40F24C22F7B2C2F29C
:103CE0000002099902EBC71717F801E043EA0C023A
:103CF0000EEA020C6FF0FF0242FA05F52B404CEA87
:103D00000302079D7A540C9F02063FF433AF0E99CD
:103D100000293FF52FAF0136072E7FF60FAF29E7B9
:103D200041B2C1F3023101444AB221F00701401A05
:103D30000E99D61000295FFA80F921D4072E1FD8DA
:103D400004FA09F26A40C9F10807FF2525FA07FCC1
:103D500040F24C25F3B2C2F20005099905EBC313FA
:103D600013F801E042EA0C050EEA050C6FF0FF05BE
:103D700045FA07F73A400C9F079D42EA0C025A5455
:103D800002063FF498AE0E9900293FF594AE013635
:103D9000072E7FF675AE8EE6DDF8649004B30698C4
:103DA000F0B11898019B00F0F80000EB0B01DDE981
:103DB00005204EB203FB002A45424FF0FF3000BF02
:103DC000471C5044427807EB080040B23146234676
:103DD000CDF80090FFF792FDE81901303846EFD199
:103DE0000FB0BDE8F08F00002DE9F04F81B040F238
:103DF0004E64C2F2000440F24C6540F2587640F244
:103E00004C2A40204FF00008C2F20005C2F2000622
:103E10004FF01009C2F2000A04F1010B00272070D4
:103E2000A7F15000687000BF304678212A4602236F
:103E3000FDF7F8FD0028F7D185F80180304678219C
:103E40002A460223FDF7EEFD0028F7D185F8019000
:103E5000304678212A460223FDF7E4FD0028F7D1F9
:103E60000AEBC71158468022FCF77EF930467821CC
:103E700022468123FDF7D6FD0028F7D10137082F10
:103E8000CED101B0BDE8F08F704700007047000050
:103E9000FDF71CBF70470000F0B581B0FFF7F8FCDC
:103EA00040F20407C2F2000740F200253968C2F26E
:103EB000000595F8200095F822204968B7F90430EC
:103EC000101A01EB031144F2D06451F8102C0C3895
:103ED000C0F60004002641B2022023460096FFF7F8
:103EE000E1FC95F8200095F82210B7F90420081A93
:103EF00039681201496804308A5841B202202346C9
:103F00000096FFF7CFFC396895F8200095F822203D
:103F10004968B7F90430101A01EB03110A6914302B
:103F200041B2022023460096FFF7BCFC396895F8A1
:103F3000200095F822204968B7F90430101A01EBE7
:103F400003110A6A243041B2022023460096FFF78B
:103F5000A9FC396895F8200095F822204968B7F93E
:103F60000430101A01EB03110A6B343041B2022005
:103F700023460096FFF796FC396895F8200095F8DF
:103F800022204968B7F90430101A01EB03110A6CBA
:103F9000443041B2022023460096FFF783FC688B31
:103FA000B9882A7DA0EB01100130012401B2002064
:103FB0000E230094FFF7DAF87920002106223F2330
:103FC0000096FFF79DFA386880228089B5F926109F
:103FD000B2FBF0F37B2002220096FFF7A7F801B0B6
:103FE000BDE8F040FFF700BFFEE7000080B582B0FB
:103FF000019040F2AC70C2F2000001A901224FF61C
:10400000FF73FEF7E9FA019802B080BD90B0FDF7AA
:104010006BFE00240120CDE90B44CDE90944069054
:104020000A904FF4E0104FF4803102250F9006A85B
:10403000CDE90714CDE90D51FEF708F820B1EFF3F3
:10404000108072B6FEE700BF0F20CDE901054FF4E6
:104050008060CDE9040401A802210394FDF7ECFE81
:1040600020B1EFF3108072B6FEE700BFFEF7CAFF83
:10407000FEF7A6FFFFF716F8FFF736F8FFF76EFA20
:1040800040F20029C2F200090020C9E90B00C9E989
:104090000D00C9E90F00C9E911001420FCF7B2FEB8
:1040A0000FF2C45000F0F4FA40F20400C2F2000033
:1040B0000068016940680A01A9F81C2000EB0110A2
:1040C0000079042100EB400001EB4000A9F8160044
:1040D000A9F814000220A9F828005FE0CBF81060CE
:1040E00030464FF07C51FCF752FA074630463146D5
:1040F000FCF75EF8044630462146FCF7B1F8054669
:104100004FF081402146FCF7A5F83146FCF7A8F8AE
:104110000021CBF68071FCF74BF80446002F18BF46
:104120002C462046FCF7AFFA0B4600210246002041
:10413000C3F6F071FCF7A5F98146BBF92A00BBF97B
:1041400028808A46FCF756FA834640460F46FCF71D
:1041500048FA01462046FCF783F8FCF794FA044637
:104160000D46484651465A4640F200293B46C2F2A7
:104170000009FCF78CF922462B46FCF7E1F8FCF726
:1041800063FA044630464FF07E51FCF71CFA0028D3
:1041900018BF4446A9F82640FFF77EFE99F80000B4
:1041A000411E09EB0112114611F82E3F002B00F0C1
:1041B000938092F83020022A40F08E8001284FF040
:1041C00000030B700AD0022816D140F20400C2F29C
:1041D000000001680869451E07E000BF40F20400C6
:1041E000C2F2000001680869451C0D61888985429A
:1041F0000BD100250CE000BF40F20400C2F2000029
:1042000001680D6988898542F3D06A1C01D1451E79
:104210000D61B9F81C20C9F80430A9F81E20B9F8BE
:104220001620C9F80830A9F818202A01A9F81C207E
:10423000496840F2040701EB0511C2F20007B7F923
:1042400006200979954201EB41014FF0040202EB8F
:104250004101A9F8161005DDE91EC9F80C30FD80F2
:10426000B9800CE0B7F904108D4207DAE91CF98037
:104270002946C9F80C30BD8001E000BF89B2B9F809
:1042800022200901A9F824208022A9F82210B9F8D7
:104290002610441EB2FBF0F0A542C9F81030A9F870
:1042A0002A1003D1C0F13E0014E000BFC0F13C0071
:1042B000FCF797F906462046FCF793F9014630468D
:1042C000FCF700F84FF07C51FBF772FFFCF7A3F905
:1042D00068430230A9F82800D9F804404FF07E5115
:1042E0002046FCF754F9074600284FF000412046CD
:1042F0001CBF4CF6CD41C3F6CC51FBF759FF4FF034
:104300007E510446FCF751F90028264618BF4FF0AD
:104310007E564FB920464FF07E51FCF72AF900280F
:1043200008BFC9F8046001E0C9F8046030464FF0E6
:104330007C51FCF72CF9074630463146FBF738FF35
:10434000044630462146FBF78BFF05464FF081407F
:104350002146FBF77FFF3146FBF782FF0021CBF6BA
:104360008071FBF725FF0446002F18BF2C4620461E
:10437000FCF789F90B46002102460020C3F6F071D4
:10438000FCF77FF88246B9F91E008B46FCF732F93C
:10439000054640F20020C2F20000B0F91C708846C9
:1043A0003846FCF71EF901462046FBF759FFFCF79B
:1043B0006AF9044689465046594640F2002A2A4680
:1043C0004346C2F2000AFCF762F822464B46FBF76E
:1043D000B7FFFCF739F9044630464FF07E51FCF741
:1043E000F2F8002818BF3C46DAF808504FF07E512A
:1043F0002846AAF81A40FCF7CAF8074600284FF0EA
:10440000004128461CBF4CF6CD41C3F6CC51FBF70A
:10441000CFFE4FF07E510446FCF7C7F80028264631
:1044200018BF4FF07E564FB920464FF07E51FCF733
:10443000A0F8002808BFCAF8086001E0CAF80860C0
:1044400030464FF07C51FCF7A2F807463046314623
:10445000FBF7AEFE044630462146FBF701FF05465A
:104460004FF081402146FBF7F5FE3146FBF7F8FEA1
:104470000021CBF68071FBF79BFE0446002F18BF8E
:104480002C462046FCF7FFF80B4600210246002090
:10449000C3F6F071FBF7F5FF8046BAF918008946BC
:1044A000FCF7A8F8834640F20020C2F20000B0F901
:1044B00016A00F465046FCF794F801462046FBF73D
:1044C000CFFEFCF7E0F804460D46404649465A4602
:1044D00040F200293B46C2F20009FBF7D8FF224612
:1044E0002B46FBF72DFFFCF7AFF8044630464FF0A4
:1044F0007E51FCF768F8002818BF5446D9F80C50D4
:104500004FF07E512846A9F81440FCF740F80746C2
:1045100000284FF0004128461CBF4CF6CD41C3F6A1
:10452000CC51FBF745FE4FF07E510446FCF73DF8B9
:104530000028264618BF4FF07E564FB920464FF050
:104540007E51FCF716F8002808BFC9F80C6001E09E
:10455000C9F80C6030464FF07C51FCF718F807465C
:1045600030463146FBF724FE044630462146FBF731
:1045700077FE05464FF081402146FBF76BFE314642
:10458000FBF76EFE0021CBF68071FBF711FE0446AF
:10459000002F18BF2C462046FCF775F80B4600216B
:1045A00002460020C3F6F071FBF76BFF8046B9F9B5
:1045B00024008946FCF71EF8834640F20020C2F230
:1045C0000000B0F922A00F465046FCF70AF8014659
:1045D0002046FBF745FEFCF756F804460D464046DC
:1045E00049465A4640F2002B3B46C2F2000BFBF70D
:1045F0004EFF22462B46FBF7A3FEFCF725F80446A8
:1046000030464FF07E51FBF7DEFF002818BF5446BE
:10461000DBF810504FF07E512846ABF82040FBF7F6
:10462000B6FF074600284FF0004128461CBF4CF655
:10463000CD41C3F6CC51FBF7BBFD4FF07E51044694
:10464000FBF7B3FF0028264618BF4FF07E56002F19
:104650007FF444AD20464FF07E51FBF78AFF0028DF
:1046600008BFCBF810603BE572656164793A2900B8
:1046700002E008C8121F08C1002AFAD1704770472B
:10468000002001E001C1121F002AFBD17047000089
:1046900010B5044601E0FFF7A9FC14F8010B04492A
:1046A0000028F8D1BDE810400A20FFF79FBC0000A9
:1046B00000000020000000000000000001020304D0
:1046C00006070809000000000102030401020000BF
:1046D00008060000D84600080000000000000000A6
:1046E000002F000000000700070000147F147F1453
:1046F00000242A7F2A1200626408132300364955D9
:10470000225000000503000000001C2241000000B0
:1047100041221C000014083E08140008083E080846
:10472000000000A0600000080808080800006060A1
:104730000000002010080402003E5149453E0000E0
:10474000427F4000004261514946002141454B31C2
:10475000001814127F10002745454539003C4A498E
:104760004930000171090503003649494936000600
:104770004949291E00003636000000005636000068
:1047800000081422410000141414141400004122E3
:10479000140800020151090600324959513E007CBB
:1047A0001211127C007F49494936003E41414122A5
:1047B000007F4141221C007F49494941007F09098E
:1047C0000901003E4149497A007F0808087F00003E
:1047D000417F4100002040413F01007F08142241F9
:1047E000007F40404040007F020C027F007F0408B1
:1047F000107F003E4141413E007F09090906003E0D
:104800004151215E007F0919294600464949493135
:104810000001017F0101003F4040403F001F204058
:10482000201F003F4038403F006314081463000716
:104830000870080700615149454300007F4141006D
:1048400000552A552A55000041417F00000402010D
:1048500002040040404040400000010204000020EB
:1048600054545478007F4844443800384444442029
:1048700000384444487F00385454541800087E09D6
:1048800001020018A4A4A47C007F0804047800009E
:10489000447D4000004080847D00007F102844005B
:1048A0000000417F4000007C04180478007C08046C
:1048B000047800384444443800FC242424180018A8
:1048C000242418FC007C0804040800485454542094
:1048D00000043F444020003C4040207C001C20401D
:1048E000201C003C4030403C004428102844001C60
:1048F000A0A0A07C004464544C4414141414141458
:1049000002030405060708090A0B0C0D0E0F101010
:104910004C6973745F453100613100616673616495
:104920003100776F646531006166736164663100E0
:1049300073647331004C69737431007771776571FA
:104940007731004C6973745F45006100776F64656F
:104950000061667361646600736473004C6973740C
:10496000006D61696E4D656E75006C6973744D659F
:104970006E7500777177657177000000A0490008B7
:10498000000000200002000068080008104A00082B
:1049900000020020F8090000804600080000000026
:1049A00041130C01222012033201421013127A1318
:1049B0006A4923082C2A201C720E1A3514B2051AD3
:1049C0001810B2031A3B10B2071A3010B204DA10F2
:1049D00020DA1B10DA22600912700A3902700A1DEF
:1049E00028701A61101A20F04169F49A5C54221858
:1049F0001B204A10B2011A7310B2061A5810B203E3
:104A0000DA4320DA5110DA4CB4A97041095E700023
:0400000508000131BD
:00000001FF
